:020000040800F2
:1000000058050020213E0008F93D0008FB3D00088E
:10001000FD3D0008FF3D0008013E00080000000013
:10002000000000000000000000000000033E000887
:10003000053E000800000000073E0008093E0008D9
:10004000593E00085D3E0008613E0008653E00081C
:10005000693E00086D3E0008713E0008753E0008CC
:10006000793E00087D3E0008813E0008853E00087C
:10007000893E00088D3E0008913E0008953E00082C
:10008000993E00089D3E0008A13E0008A53E0008DC
:10009000A93E0008AD3E0008B13E0008B53E00088C
:1000A000B93E0008BD3E0008C13E0008C53E00083C
:1000B000C93E0008CD3E0008D13E0008D53E0008EC
:1000C000D93E0008DD3E0008E13E0008E53E00089C
:1000D000E93E0008ED3E0008F13E0008F53E00084C
:1000E000F93E0008FD3E0008013F0008053F0008FA
:1000F000093F00080D3F0008113F0008153F0008A8
:10010000193F00081D3F0008213F0008253F000857
:10011000293F00082D3F0008313F0008353F000807
:10012000393F00083D3F0008413F0008453F0008B7
:10013000493F000800000000000000004D3F00089B
:10014000513F0008553F0008593F00085D3F000837
:10015000613F0008653F0008693F00086D3F0008E7
:10016000713F0008753F0008793F00087D3F000897
:10017000813F0008853F0008893F0008000000001B
:10018000000000008D3F000800000000000000009B
:10019000913F00080000000000000000953F0008AB
:1001A000000000000000000000000000993F00086F
:1001B0009D3F0008A13F0008A53F0008A93F000897
:1001C000AD3F000840F0200070472DE9F14FB0B07E
:1001D000924604910DF142013A9A2B9199464A7048
:1001E00000200AE01AF8011B0498309A9047002872
:1001F000049000F042860D98401C0D909AF8000083
:1002000050B12528EED100210022079108920991D2
:100210000A920B910C9204E00D9800F030BE41F070
:1002200001011AF8010F2028F9D023280CD02B281F
:1002300004D02D2805D0302809D00BE041F0020170
:10024000EFE741F00401ECE741F00801E9E741F094
:100250001001E6E72A280FD1D9F8002052F8040B44
:10026000C9F8002000280F9003D540420F9041F0BC
:1002700004010AF1010A14E00F92DFF8083C0AE0D9
:100280000F98984205DA00EB800402EB4402303A02
:100290000F920AF1010A9AF80020A2F130000A2810
:1002A000EED39AF800002E2803D04FF0FF320E92C2
:1002B00029E01AF8010F2A2809D1D9F8000050F8CE
:1002C000042BC9F800000E920AF1010A1BE02D2848
:1002D0000CBF0AF1010A002000220E92DFF8A44BA5
:1002E0000BE040B90E9AA24205DA02EB820503EB5D
:1002F0004503303B0E930AF1010A9AF80030A3F14E
:1003000030020A2AEDD3ADF840100FF67C309AF88F
:10031000001000F0D1FE08B11AF8010B8DF8420070
:100320009DF84200682805D19AF8000068280CD191
:10033000622106E06C2804BF9AF800006C2804D102
:1003400071218DF842100AF1010A12A806901AF8DC
:1003500001BBBBF125012CD01C3900F09481091F91
:10036000022940F29081133900F0B984093900F074
:100370008A81891E00F04E85491E00F0FB84491ECB
:10038000022940F28081091F00F0F484491F00F027
:10039000EF80491E00F0A384491E00F0D780C91EDB
:1003A0000CD0891E00F09B84C91E00F0988400F0D8
:1003B0003CBD01230793252100F034BDD9F800008E
:1003C00050F8044BC9F80000002C059440F0AB80B5
:1003D0002B994878002800F0A1804FF0FF340FF6E9
:1003E000B02000F079FE201A40F0478500F029BDCA
:1003F00001236A4602A9304600F00EFE002840F0B4
:100400003C856D1EF4D13096079D12AF75B1309EBC
:1004100017F8011B0498B0470028049000F02D85C0
:100420000D98401C6D1E0D90F2D130960A9D302122
:10043000002D8DF800100CDD309E01236A4602A9C4
:10044000304600F0E9FD002840F017856D1EF4D11C
:100450003096059F089D75B1309E17F8011B0498D2
:10046000B0470028049000F008850D98401C6D1ED0
:100470000D90F2D130960B9D3021002D8DF800109B
:100480000CDD309E01236A4602A9304600F0C4FD0F
:10049000002840F0F2846D1EF4D13096059808993A
:1004A000099D471875B1309E17F8011B0498B04795
:1004B0000028049000F0E1840D98401C6D1E0D9002
:1004C000F2D130960C9D3021002D8DF800100CDDFE
:1004D000309E01236A4602A9304600F09DFD0028A7
:1004E00040F0CB846D1EF4D130969DF8400041075A
:1004F0007FF584AE2020002C8DF800007FF77EAEC3
:10050000309D01236A4602A9284600F085FD002897
:1005100040F0B384641EF4D130956FE60FF6583086
:10052000059000F08EBC0E9D002D04D5204600F0F5
:10053000F3FD044607E02A46204600F009FE0028A5
:1005400014BF041B2C46089400F07BBCD9F80010A3
:1005500051F8040BC9F8001020F00004002121F02C
:10056000FF35CDE9024512AB0593782100F04EBC72
:100570002B99487820B14FF0FF340FF6CC2030E7AC
:100580009DF84200622860D0682817D06A283FD0C2
:100590006C2806D0712847D074282CD07A281DD01A
:1005A00062E0D9F8001051F8040BC9F800100028D7
:1005B00066D14FF0FF340FF6A82012E7D9F80010EB
:1005C00051F8040BC9F8001020B94FF0FF340FF6B2
:1005D000902006E70D99018000F033BCD9F8001097
:1005E00051F8040BC9F80010002849D14FF0FF342E
:1005F0000FF66C20F5E6D9F8001051F8040BC9F895
:10060000001000283CD14FF0FF340FF65420E8E6EC
:10061000D9F8001051F8040BC9F8001080B94FF058
:10062000FF340FF63C20DCE6D9F8001051F8040B3B
:10063000C9F8001020B94FF0FF340FF62420D0E69F
:100640000D9AD317C0E90023FBE3D9F8001051F845
:10065000040BC9F8001020B94FF0FF340FF600204A
:10066000BFE60D990170ECE3D9F8001051F8040BC6
:10067000C9F8001020B94FF0FF340FF6E410B0E6CF
:100680000D990160DDE39DF842004C2807BFD9F8C1
:100690000010CA1DD9F80000C21D22F00702C9F8D7
:1006A0000020D2E900010832C9F80020CDE902019A
:1006B000C80F02D007982D210AE0BDF8400081073D
:1006C00002D507982B2103E0C00705D50798202104
:1006D00012AA1154401C079012A807994BF020034E
:1006E00000EB010CDDE90201CDE92C01612BCDF815
:1006F00014C021AC0BD00E98002848BF062105D4A9
:1007000004BF4BF02000672801D101210E91DDE9E3
:1007100002014F0047EAD0777E15FF174FF0FF32F6
:10072000974208BF964210D1090341EA10510003D5
:10073000002908BF002808D0ABF1610503211A2D5C
:10074000089118D30FF6381110E0DDE902014A00D4
:10075000521512F1010F11D108030FD1ABF1610550
:1007600003211A2D08911FD30FF61C110322604696
:1007700000F01AFD65E30FF60411F7E7DDE9020169
:100780006A4600F065FDCDE902014BF020006128CA
:1007900011D1059830210170821C0592BBF1610FC7
:1007A0000CBF7821582102E00FF6D801DEE7417036
:1007B0000798801C0790DDE9020120F0000231F06B
:1007C000004308BF002A02D10026002542E14BF079
:1007D0002008B8F1610F40F092800E98002847BFC2
:1007E00021210191401C0190019FDDE92C017F1C1A
:1007F00000220023DDE9024500F062FD38BF85F0EC
:10080000004500998DF88420091F002F00910DF1FB
:10081000850632DD204629460022002300F06AFDCD
:100820002BD21C2200F080FD04460D4600F01AFE7B
:10083000FF1F002F804609DD00F030FE02460B4608
:100840002046294600F0F2FE04460D46F01D072121
:10085000B8F1000F0CDD491E5EBF08F00F0200F872
:10086000012D4FEA2818F3D502E0002200F8012DEF
:10087000491EFAD5C61D002FCCDC0DF18500361AB5
:1008800001980DF185048642D8BF304600282FD448
:10089000B04206DA0DF185010A5C082AA8BF0F21D3
:1008A00000DA0021024621AB134400E0401E13F899
:1008B0000159521E8D42F9D00F2904D10DF1850145
:1008C0008B5C5B1C8B54002A04D50099091D21AC5C
:1008D000401C0091411E0BD4621813783033DDB2F6
:1008E0003A2DA4BF5B443A3B491E02F80139F4D5C6
:1008F0000E99002940F1AC80421E0E92A8E00099AA
:10090000DFF8042747F29750414391FBF2F200923F
:10091000DDE92C45C2F10702002A25F0004504DD7F
:100920002046294600F04CFB0BE052420020DFF845
:10093000DC1600F045FB02460B462046294600F037
:10094000E7FE04460D46B8F1660F06BF009F0A3762
:1009500006270E983F18142FC8BF142730208DF893
:1009600084000DF18506002F34DD2046294600F075
:10097000F3FF01460A4606F1080304200A26B2FBEB
:10098000F6F606EB860EA2EB4E02303203F8012C8F
:100990000A22B6FBF2F202EB820EA6EB4E063036CE
:1009A000401E03F8026DE9D1083F002F03F108064D
:1009B000D9DD084600F0E2FF02460B4620462946F4
:1009C00000F034FE0022DFF8483600F0E5FF044670
:1009D0000D46CAE70DF18500361A0DF1850404E0D5
:1009E0000098401E761E0090641C20783028F7D0B6
:1009F000B8F1660F02D10099491C04E0B8F1650F07
:100A00000CBF012100210E9808188642B8BF701E45
:100A100000281DD4B04204DA215C3429C8BF392132
:100A200000DC30210246631E9D1800E0401E15F8D0
:100A30000169521E8E42F9D0392902D1A15C491CAC
:100A4000A154002A04D50099491C1C46401C009161
:100A50000646009D01F076F8406A0778DDF8388098
:100A600030B2002802DC01260FF220644BF0200097
:100A7000662808BF6D1C16D0672846D128B210F131
:100A8000040F48DB404546DA9DF840006D1C010725
:100A900003D430B24045D8BF804628B2B8EB000836
:100AA00048BF4FF000080FFA85FBBBF1000F00F3C1
:100AB000B5800898411C0891302205990A54B8F174
:100AC000000F03DC9DF84000010704D50898411C85
:100AD000089105990F5418EB0B0FB8BFC8F100052A
:100AE0002DB26842A84432B20B909045B8BF46463A
:100AF000059B089836B2099632462146184400F004
:100B000053FBA8EB06000C90D2E0BBF1610F17D1AC
:100B10004FF0700B19E030B2404504DA9DF84010F8
:100B20000A0758BF8046B8F1010848BF4FF00008D7
:100B3000BBF1670F14BF4FF0450B4FF0650B04E09E
:100B4000BBF1410F08BF4FF0500B0898411C0891B2
:100B5000B8F1000F059914F8012B0A5403DC9DF835
:100B6000400001071AD50898411C0891B8F1000F00
:100B700005990F5412DD761E30B28045B8BF464647
:100B80000598089B32B22146184400F00DFB0899E5
:100B900036B271180891A8EB06000B9005980899D9
:100BA000084429B2002980F800B003D42B224270F7
:100BB000821C04E02D2242700D46821C6D420021F1
:100BC0002CAB28460AE004460A2094FBF0F000EB28
:100BD0008005A4EB450403F8014B491C00B2002832
:100BE000F1DC012906DC4BF02000652804BF302031
:100BF00002F8010B00292CAB08D1302002F8010BC0
:100C000006E0491E585C303002F8010B0029F8DC80
:100C1000059908980844121A099249E030B229B29D
:100C200088421CDA0598089B32B22146184400F02D
:100C3000BBFA089936B271180891ABEB0600B8F10F
:100C4000000F0B9003DC9DF84000020704D50598C7
:100C500047540999491C0991CDF8308028E005983E
:100C6000089B2AB22146184400F09EFA0898761B89
:100C70005844B8F1000F089003DC9DF840100A07B3
:100C800003D5411C089105990F5430B28045B8BF77
:100C900046460598089B32B204EB0B01184400F05D
:100CA00083FA089836B230180890A8EB06000B902B
:100CB0009DF8400000F01400102840F0C280079A10
:100CC00008990B988A18099982180C988A18821822
:100CD0000F98824280F2B580821A0A92B1E09DF8A4
:100CE0004200622808D068280ED06A2814D06C28E8
:100CF0001FD0712810D01CE0D9F8001051F8040B57
:100D0000C9F80010C0B21AE0D9F8001051F8040B6D
:100D1000C9F8001080B212E0D9F80000C21D22F01C
:100D20000702C9F80020D2E900010832C9F8002002
:100D300006E0D9F8001051F8040BC9F800100021A2
:100D4000CDE902019DF8400001075AD5DDE90223F3
:100D5000002B08BF002A54D04BF02000782850D137
:100D6000079812A930220A54401C431C079301F82B
:100D700000B046E09DF84200622808D068280ED0F6
:100D80006A2814D06C281FD0712810D01CE0D9F824
:100D9000001051F8040BC9F8001040B21AE0D9F85D
:100DA000001051F8040BC9F8001000B212E0D9F895
:100DB0000000C21D22F00702C9F80020D2E900019C
:100DC0000832C9F8002006E0D9F8001051F8040BE9
:100DD000C9F80010C117CDE90201002902D5079812
:100DE0002D210AE0BDF84000810702D507982B218C
:100DF00003E0C00705D50798202112AA1154401C12
:100E0000079012A8079901440591594602A800F0DD
:100E10004DF816E001200790D9F8000050F8041BA7
:100E2000C9F800008DF848100BE001212522BBF124
:100E3000000F07918DF8482003D0022207928DF809
:100E400049B00F9A07980A990C9C121A0898521ADE
:100E50000B99121A0998521A121A9DF84000141B85
:100E600041073FF5D1AA2020002C8DF800007FF724
:100E7000CBAA309E2546FFF7BBBA4FF0FF3031B00A
:100E8000BDE8F08FCBCCCC0C686A6C747A4C000057
:100E90007072696E74665F733A20626164202573B4
:100EA00020617267756D656E740000002DE9FC4766
:100EB00007468A463C6950466F2808BF082505D07A
:100EC000FFF780F9782814BF0A251025D7E900011B
:100ED0003C2680468946BAF1640F18BFBAF1690F03
:100EE00005D1002903D5D8F1000869EB4909B9F10A
:100EF000000F08BFB8F1000F0CD1386B50B9082DA6
:100F00003AD197F83800010736D530223B2684F8CD
:100F10003B2031E08DF800A0404649462A46EB17B9
:100F200000F014FE3032D0B2761E3A2801960EDA66
:100F3000A255404649462A46EB1700F007FE804678
:100F40005FEA010908BFB8F1000F05D108E09DF87C
:100F500000001218513AEBE7F868A1198842DBD378
:100F6000082D09D197F83800010705D5A05D302874
:100F700002D0761E3020A055C6F13C02BA61A119FC
:100F8000F960386B824208DA821A3A624FF6EF70E3
:100F9000398F01403987BDE8F38700280ED597F8CF
:100FA000380000F01400102808D17B6B7969386A8A
:100FB0005B1A1B1A9A1A002AC8BF3A62BDE8F38767
:100FC0002DE9D04306460F4614464FF00008DFF8DF
:100FD000449012E0E00707D542464B46304639467A
:100FE00000F0DAFC06460F464046494642464B466C
:100FF00000F0D2FC641080468946002CEAD13046CD
:101000003946BDE8D0830000A08601000000F03F13
:1010100084D7974100002440F8B505460E46174690
:101020001C4600205CB117F8011BB068A847B060EF
:1010300030B1F06A401CF0620020641EF3D1F2BDB2
:101040004FF0FF30F2BD00007072696E74665F731E
:101050003A20256E20646973616C6C6F776564005B
:101060007072696E74663A2062616420256E206138
:101070007267756D656E7400000000006E616E0031
:101080004E414E00696E6600494E460030000EE04B
:1010900002684368024408305FEAC37C44BF4B44A3
:1010A0005B1E52F804CB43F804CB091FF9D150F86A
:1010B000041B0029ECD17047C9B202788A421AB1E8
:1010C0001CBF10F8012FF9E718BF00207047026815
:1010D000531C03601170704780B500B906A0054924
:1010E0000B681BB122220021984701E000F046FE68
:1010F000222002BD50010020636F6E73747261691B
:101100006E742068616E646C65723A20626164205E
:101110006D6573736167650000F10103810704D099
:1011200010F8011B820781B1FAD10268A2F10131E6
:10113000914311F0803104BF50F8042FF6E709BA4B
:10114000B1FA81F100EBD100401CC01A70472E00AB
:10115000C9B2830706D0521E22D310F8013B994230
:10116000F7D11FE0083A13D302F1040241EA01214A
:1011700041EA014150F8043B121F21BF4B40A3F14B
:10118000013C2CEA030C1CF0803FF3D0C9B2001FD5
:10119000083210F8013B521E28BF91EA030FF8D81D
:1011A00018BF0120401E704762B38B0708D0521E43
:1011B00011F8013B00F8013B00F024808B07F6D1C9
:1011C000830740F0208000BF103A07D330B4B1E865
:1011D0003810103AA0E83810F9D230BC530724BFB9
:1011E000B1E80810A0E8081044BF51F8043B40F8EB
:1011F000043BD20724BF31F8022B20F8022B44BF56
:101200000B7803707047121F17D35B0009D151F898
:10121000043B20F8023B1B0C121F20F8023BF6D2C5
:101220000BE051F8043B00F8013B1B0A20F8023B9D
:101230001B0C121F00F8013BF3D238BF121D521EC7
:1012400024BF11F8013B00F8013BF8D870470000BB
:1012500010B5144600F002F8226010BDC1F30A5325
:1012600043B14A0012F5001F28D2A3F2FE32A1EBCF
:101270000251704750EA410C20D001F0004C31EA95
:101280000C01B1FA81F204BFB0FA80F3D2180B3A24
:10129000B2F120032CBF00FA03F1914041EA0C01A6
:1012A0003EBFC2F1200C20FA0CF319439040524289
:1012B00040F2FD33D21A01EB035170470022704710
:1012C00041EA030C50EA4C0C52EA0C0C4FF4001C9F
:1012D00009D307D01CEB410F9CBF1CEB430F8B4283
:1012E00008BF824270471CEB430FFBD8994208BFEE
:1012F0009042704741EA030C50EA4C0C52EA0C0C45
:101300004FF4001C09D307D01CEB410F9CBF1CEB12
:10131000430F994208BF904270471CEB410FFBD826
:101320008B4208BF82427047124254D440F2FF7C85
:101330001CEA11530FD0634531D09B1863453CBF65
:1013400001EB0251704701F0004141EA0C510020CD
:10135000AFF30080704750EA410320D001F0004C09
:1013600091EA0C011CD0B1FA81F30B3B9A420DD9E2
:10137000D21A994051EA0C01C3F1200C20FA0CFC5E
:1013800061449840531C40F2FF7CD7E7914041EA0A
:101390000C01C2F1200C20FA0CF319439040704765
:1013A000B0FA80F31533202BE0D3202AEED3203A75
:1013B000203B9A4209D9D21A00FA03F141EA0C0102
:1013C0000020531C40F2FF7CB8E700FA02F141EA2A
:1013D0000C0100207047524240F2FF7C1CEA11537E
:1013E0000DD06345DBD0B2EB030C3CBFA1EB025147
:1013F00070470CF1010221EA035141F4801150EAD7
:10140000410CCCD001F0004C352A27DC30B481EA05
:101410000C01B2F1200309DAC2F12003044601FAFB
:1014200003F5D0402843D1409C400CE0C3F120029A
:10143000450020FA03F418BF44F0010421FA03F038
:1014400091400C43002174F1004550F1000051EB34
:101450000C01244230BC7FF47BAF70476146002012
:1014600076E70000C1F30A5340F21E42D31A0CDDA6
:10147000CA0283F3070342EA505242F00042DA40C4
:1014800002EBE17282EAE17070476FEAE17203F207
:10149000E13008B182F000407047000010F00041D8
:1014A00060B148BF4042B0FA80F29040D21CC2F511
:1014B000846241EA025202EBD021400570470000ED
:1014C000841A71EB030604D26E40001BB14112195D
:1014D00073414FF4001C1CEB410F34BF7CEB4306FF
:1014E00083E00C0DA4EB1356362E00F37C80012E06
:1014F00045EAC32341DC43EA525312BFD2029202AF
:101500005B08240545EAC12141EA5051D2EBC020D5
:10151000994125D407D1B0FA80F610FA06F162D0CD
:101520000020203608E0B1FA81F6B140C6F1200271
:1015300020FA02F21143B0404FEAF474B4EB46547F
:1015400034F001064FEA74040AD8D6F50016760D79
:1015500004F00044F04061FA06F25040F140484087
:10156000C00A40EA415021F0004128BF5FEA50051F
:1015700050F1000044EBD12135E0DB0A45EAC121FE
:10158000C90AB6F120050EDD42EA0242120CC5F18D
:10159000200603FA06F6EB4042EA06056D42984142
:1015A00061F100010DE062FA06F5F240554063FA80
:1015B00006FC82EA0C02F3405A406D42904161EB16
:1015C000030111F4801F05D1641E620502D06D0075
:1015D0004041494121F48011430875F1004350F125
:1015E000000041EB045170BC70471CEB410F15D259
:1015F00023F0004352EA43060BD04FEA4C0CBCEBFD
:10160000410F04D80C0D661E342EB7DDEBE7801AAF
:10161000994150EA410608BF0021E4E708BF1CEBEE
:10162000430F28BF6FF00001DDE7000070B491EABE
:10163000030F4FF000457FF543AF6B40841A71EB09
:10164000030603D2001BB141121973414FF4001C71
:101650001CEB410F34BF7CEB430442E00C0DA4EBC8
:101660001356352E4FDC45EAC323DB0A45EAC12178
:10167000C912B6F120050DDD63FA05F6EB4086EAE6
:101680000305124218BF45F00105C01851F10001D1
:101690000CD213E062FA06F5F2405540F3415A408D
:1016A000B340F3405A408018594107D349085FEAD4
:1016B00030005FEA350528BF45F0010501F58011CE
:1016C000420875F1004250F1000041EB04514E0018
:1016D00016F5001F70BC38BF70470020090D0905C2
:1016E00070471CEB410F10D252EA43060BD0BCEB03
:1016F000410F05D80C0DAB43661E342EB6DD02E05B
:10170000AB438018594170BC704770BC70470000F3
:10171000F0B540F2FF7581EA030C0CF0004C15EABD
:1017200011541DBF15EA1357AC42AF42E5E0BC416E
:10173000C1F31301C3F31303801A994143F48013D7
:1017400004D2641E0018494180185941C90241EA77
:101750005051B1FBF3F603FB1611A2FB0675D7EB54
:10176000C020A94102D2761E80185941C90241EA1F
:101770005051B1FBF3FE03FB1E11A2FB0E75D7EB1C
:10178000C020A94103D2AEF1010E8018594189024F
:1017900041EA9051760546EA8E2EB1FBF3F603FB43
:1017A0001611A2FB0675D7EB8020A94102D2761E46
:1017B00080185941C90241EA50514EEA060EB1FB68
:1017C000F3F603FB1611A2FB0675D7EBC020A94167
:1017D00002D2761E80185941C90241EA5051B1FB2C
:1017E000F3F703FB1711A2FB0735D3EBC020A94188
:1017F00067F100070CBF004247F0010766F3D527E9
:101800004FEA1E31B80814F5806412DDBD0775F18A
:10181000004250EB0E5051EB045111F5801F5CBF9C
:1018200041EA0C01F0BD4CF07F6141F0E041002045
:10183000F0BDBD076D0840EA0E5041F48011D4F1AF
:101840000104B4F120060ADAC4F120060200E040E7
:1018500001FA06F3E1401843B24015430EE0342C80
:1018600013DCC6F1200445EA40056D0820FA06F2B3
:10187000154321FA06F0A1400D43002175F1004205
:1018800050F1000051EB0C01F0BD00205FEA0C01AB
:10189000F0BDCFB992185B41B3FA83F704BFB2FA37
:1018A00082F6BF190B3FB7F120062FBF02FA06F3ED
:1018B000BB40C7F1200622FA06F638BF3343BA40D0
:1018C0001CB1E419641E33E77F4231F00041B1FAE4
:1018D00081F404BFB0FA80F6A4190B3CB4F12006E1
:1018E0002FBF00FA06F1A140C4F1200620FA06F647
:1018F00038BF3143A0403C1B1AE7AC421ABF05EA8F
:101900001357AF4212E050EA41061CBF52EA4306A9
:10191000BFE750EA4107304661461CBF41EA055126
:10192000F0BD52EA430C08BFC143F0BD00204FF4A4
:10193000001616EB410F98BF16EB430F08BF16EBCE
:10194000410F24BFC14305E016EB430F0CBF6146B6
:101950004CEA0551F0BD0000400D40F21E4C40EA3B
:10196000C120BCEB115C40F0004003D48CF30701B4
:10197000C84070476FEAE1707047000050B1B0FA9C
:1019800080F18840C91CC1F58461090501EBD021B3
:10199000400570470146704730B540F2FF7C1CEAB5
:1019A00011541DBF1CEA1355644565453FE0641999
:1019B00081EA030C6FF35F530CF0004C43F4801387
:1019C000C90241F0004141EA505EC5021100A5FB89
:1019D000020200284FF00000EEFB01204FF0000152
:1019E000E3FB052118BF42F00102401800214941E4
:1019F000E3FB0E01A4F580640D0302D2921840416E
:101A0000494154F1010470DD450872F1004250F182
:101A1000000051EB0451A1F5801102D441EA0C0100
:101A200030BD40F2FF7E4CEA0E51002030BD0CEA82
:101A30001355644518BF654581EA030C0CF0004C52
:101A400041D050EA410E1CBF52EA430E02E061460B
:101A5000002030BD24422C441BD15FEA050EF6D095
:101A6000090302BF01460020AEF1140EB1FA81F560
:101A7000AEEB050401FA05FE0C35C5F1200100FAB4
:101A800005F5C8404EEA000E6FF35F5343F4801330
:101A90009CE733F00043B3FA83F504BFB2FA82FE49
:101AA00075440B3D641BB5F1200E2FBF02FA0EF3F7
:101AB000AB40C5F1200E22FA0EFE38BF43EA0E03FA
:101AC000AA40641C7CE750EA410E14BF52EA430E60
:101AD0006FF000014FF4001515EB430F8EBF194650
:101AE00015EB410F9DE7B4D830BDD4F10104B4F13A
:101AF00020050FDAC4F12005520828BF42F0010288
:101B000010FA05FE01FA05F57244E2BFE0402843F1
:101B1000E1400FE0352C9ADCC5F1200452EA400286
:101B200020FA05F218BF42F0010231FA05F0A14097
:101B30000A43002172F1004250F1000051EB0C0108
:101B400030BD00000048704708000020BBBBE1B179
:101B5000B2F5803F80F07E80022A1ED98C46B1FB10
:101B6000F2F102FB11C31B0443EA1043B3FBF2FC86
:101B700002FB1C3380B240EA0343B3FBF2F002FBEA
:101B8000103240EA0C4000237047022A05D98446EF
:101B9000B0FBF2F002FB10C270474AB105D100F071
:101BA000010249085FEA30007047002200237047B5
:101BB00000F0E8B80B0002000021002070479042BE
:101BC00071EB030CF6D3B3F5803F2FD2F0B5B3FA27
:101BD00083F7B1FA81F4A7F10F0E3D1B5340CEF10C
:101BE000200602FA0EF2F3415340B5F10F0746D832
:101BF0000F3C2C444140C4F12006A040F14141403B
:101C0000B1FBF3F603FB1611A2FB0645001BA9412D
:101C100002D2761E8018594180EA010221FA0EF3A1
:101C200062FA0EF200215A403046F0BD30B4B1FBEA
:101C3000F3FC03FB1C11A2FB0C45001BA94103D2C2
:101C4000ACF1010C8018594130BC02460B4660468D
:101C500000217047B2F1807F65D3F0B5B2FA82F708
:101C6000B1FA81F4C7F10F063D1B22FA06F307F122
:101C7000110EF24120355A40B5F10F07B8D9414055
:101C8000C4F12006A040F1414140B1FBF3FC03FB4D
:101C90001C11A2FB0C45001BA94103D2BCF1010C95
:101CA000801859410F2F12D30F3FC90341EA504109
:101CB000B1FBF3F603FB1611A2FB0645D4EBC030D3
:101CC000A94102D2761E8018594146EACC3C07B39E
:101CD0004140C7F12006B840F1414140B1FBF3F665
:101CE00003FB1611A2FB0645001BA94102D2761E7A
:101CF0008018594180EA010221FA0EF3C7F120044D
:101D000062FA0EF20CFA07F05A402CFA04F1304352
:101D1000F0BD80EA010221FA0EF3002162FA0EF210
:101D200060465A40F0BD8C46B1FBF2F102FB11C394
:101D30001B0243EA1063B3FBF2FC02FB1C331B02E1
:101D40004CEA002043EA1063B3FBF2FC02FB1C33B5
:101D50001B024CEA002043EA1063B3FBF2FC02FBD7
:101D60001C331B024CEA002043EA1063B3FBF2FC75
:101D700002FB1C324CEA002000237047012000F0D7
:101D800003B800007047000080B5AFF30080024A3E
:101D900011001820ABBEFBE72600020010B50020A2
:101DA00000200020002000202E48006810F00C00C9
:101DB000002806D0042807D0082808D00C282BD0EB
:101DC0004DE0DFF890044CE0DFF88C0449E0DFF8E8
:101DD0008044226812F03F02206840020AD5206841
:101DE000C0F38810DFF87014A1FB00010023FFF797
:101DF000ADFE09E02068C0F38810DFF85814A1FB9D
:101E000000010023FFF7A2FE2168C1F30141491C34
:101E10004900B0FBF1F024E0DFF83444226812F00E
:101E20003F02206840020AD52068C0F38810DFF81E
:101E30002814A1FB00010023FFF788FE09E02068B9
:101E4000C0F38810DFF80C14A1FB00010023FFF79A
:101E50007DFE2168C1F30271B0FBF1F001E0DFF813
:101E6000F40310BD083802402DE9FC410400002CA9
:101E700001D10120E9E12078C00769D5DFF8E80346
:101E8000016811F00C01042913D0016811F00C0154
:101E9000082904D1DFF8B8130968490209D4006899
:101EA00010F00C000C280ED1DFF8A40300684002EB
:101EB00009D5DFF8AC030068800349D560680028C5
:101EC00046D10120C1E16068B0F5803F06D1DFF85E
:101ED0009003016851F48031016018E06068B0F54A
:101EE000A02F0AD1DFF87803016851F48021016046
:101EF000016851F48031016009E0DFF86403016892
:101F000031F480310160016831F480210160606842
:101F100000280ED000F0B4F90500DFF84403006893
:101F2000800315D400F0ACF9401B6528F5D30320DD
:101F30008BE100F0A5F90500DFF8240300688003B9
:101F400006D500F09DF9401B6528F5D303207CE100
:101F5000207880072AD5DFF81003016811F00C0FF4
:101F600013D0016811F00C01082904D1DFF8E01248
:101F70000968490209D5006810F00C000C282ED120
:101F8000DFF8CC020068400229D4DFF8D4020168EF
:101F9000890704D5E168012901D0012055E10168D4
:101FA00031F0F801226951EAC2010160207800078E
:101FB00056D56069002842D00120DFF8B0120860D1
:101FC00000F05EF90500DFF89C020068800747D446
:101FD00000F056F9401B0328F5D3032035E1E068F3
:101FE00000281AD00120DFF88812086000F048F9B4
:101FF0000500DFF86C020168890706D400F040F99B
:10200000401B0328F5D303201FE1016831F0F801DC
:10201000226951EAC2010160C8E70020DFF85012CE
:10202000086000F02DF905008D4800688007BDD5D7
:1020300000F026F9401B0328F6D3032005E1002019
:102040008A49086000F01CF905008648006880078E
:1020500006D500F015F9401B0328F6D30320F4E061
:10206000207840076FD50026824D2868C0000BD429
:1020700000200090286850F080502860286810F0F8
:1020800080500090009801267B4F3868C00511D41D
:10209000386850F48070386000F0F2F88046386894
:1020A000C00507D400F0ECF8B0EB08000328F6D325
:1020B0000320CAE0A068012805D16848016851F0F2
:1020C0000101016015E0A068052809D16348016895
:1020D00051F004010160016851F00101016008E064
:1020E0005E480168490849000160016831F0040157
:1020F0000160A06800280FD000F0C2F80700574820
:102100000068800718D400F0BBF8C01B41F2893189
:102110008842F4D3032098E000F0B2F807004F485B
:102120000068800708D500F0ABF8C01B41F2893188
:102130008842F4D3032088E0F6B2012E03D1286848
:1021400030F080502860A06900287DD046480068A3
:1021500010F00C00082846D0A069022832D1474E62
:102160000020306000F08CF807003D4D28688001A9
:1021700006D500F085F8C01B0328F6D3032064E0E1
:10218000E169206A0143606A51EA8011A06A40084F
:10219000401E51EA0041E06A51EA0061206B51EAB9
:1021A00000712B4801600120306000F069F80400E4
:1021B0002868800148D400F063F8001B0328F7D397
:1021C000032042E000202D49086000F059F8040087
:1021D00023480068800137D500F052F8001B03281F
:1021E000F6D3032031E0A069012801D101202CE0C1
:1021F00017480068A169012924D010F48001E26920
:1022000091421FD110F03F01226A91421AD147F644
:10221000C0710140626AB1EB821F13D110F44031EA
:10222000A26A5208521EB1EB024F0BD110F070613E
:10223000E26AB1EB026F05D110F0E040216BB0EB28
:10224000017F01D0012000E00020BDE8F681000000
:10225000043802400024F40000127A007038024072
:10226000003802407438024008380240800E47426D
:102270000000474240380240007000406000474282
:1022800001480068704700BF4C01002010B50400F1
:10229000002C01D1012033E0A0690028FFD194F87F
:1022A0003D00002805D1002084F83C00200000F00B
:1022B00069FA242084F83D002068C06830F400509A
:1022C0002168C860200000F0C7F82068006930F479
:1022D0009040216808612068406930F02A00216838
:1022E00048612068C06850F400502168C860002030
:1022F0002064202084F83D00202084F83E00002047
:1023000010BD2DE9FC4106000D0014001F00002047
:1023100096F83D00202857D1002D03D0200080B230
:10232000002801D1012050E096F83C00012801D19D
:1023300002204AE0012086F83C0000203064212081
:1023400086F83D00FFF79CFF8046B484F484B068B3
:10235000B0F5805F04D13069002801D1002401E08C
:102360002C000025002086F83C000FE02078316822
:102370004860641C07E0002CF8D12888C005C00D17
:1023800031684860AD1CF08C401EF084F08C002851
:102390000AD00097434600228021300000F017F851
:1023A0000028E8D0032010E0009743460022402197
:1023B000300000F00CF8002801D0032005E02020B8
:1023C00086F83D00002000E00220BDE8F6812DE9FE
:1023D000F04105000E0090461F00069C286800682A
:1023E0003040B04201D1012000E000204146C9B296
:1023F00088422ED114F1010FF0D0002C04D0FFF749
:102400003FFFC01B8442E9D228680C3050E8001F0F
:1024100031F4D071286810F10C0242E80010002855
:10242000F2D12868143050E8001F49084900286894
:1024300010F1140242E800100028F2D1202085F8A3
:102440003D00202085F83E00002085F83C00032058
:1024500000E00020BDE8F0812DE9F0470500286884
:10246000016931F44051E868014328680161A968B5
:102470002869014368690143E86901432868C26823
:102480008D48024011432868C1602868416931F4D1
:102490004071A869014328684161286887498842DA
:1024A00003D028688649884203D100F058FA040016
:1024B00002E000F049FA0400E869B0F5004F7DD170
:1024C0007FF063081926002722000023A6FB0201E3
:1024D00006FB031107FB02116A6800235B0043EA55
:1024E000D2735200FFF732FB6421B0FBF1FA2200F5
:1024F0000023A6FB020106FB031107FB02116A6819
:1025000000235B0043EAD2735200FFF71FFB8146B2
:1025100022000023A6FB020106FB031107FB0211A8
:102520006A6800235B0043EAD2735200FFF70EFB98
:102530006421B0FBF1F008FB0090C0003230642150
:10254000B0FBF1F0400010F4F87010EB0A10824676
:1025500022000023A6FB020106FB031107FB021168
:102560006A6800235B0043EAD2735200FFF7EEFA79
:1025700081462000002102000B00A6FB020106FBA1
:10258000031107FB02116A6800235B0043EAD27360
:102590005200FFF7DBFA6421B0FBF1F008FB009872
:1025A0005FEAC80818F132086420B8FBF0F010F0B8
:1025B000070010EB0A00296888607BE07FF0630861
:1025C0001926002722000023A6FB020106FB0311A7
:1025D00007FB02116A6800239B0043EA9273920092
:1025E000FFF7B4FA6421B0FBF1FA22000023A6FB46
:1025F000020106FB031107FB02116A6800239B001E
:1026000043EA92739200FFF7A1FA81462200002369
:10261000A6FB020106FB031107FB02116A680023F7
:102620009B0043EA92739200FFF790FA6421B0FB9B
:10263000F1F008FB0090000132306421B0FBF1F0B2
:1026400010F0F00010EB0A10824622000023A6FBD7
:10265000020106FB031107FB02116A6800239B00BD
:1026600043EA92739200FFF771FA8146200000213D
:1026700002000B00A6FB020106FB031107FB02117F
:102680006A6800239B0043EA92739200FFF75EFAA8
:102690006421B0FBF1F008FB00985FEA081818F11C
:1026A00032086420B8FBF0F010F00F0010EB0A00C5
:1026B00029688860BDE8F087F369FFFF00100140DA
:1026C0000014014080B5002000904848016851F492
:1026D00080410160006810F4804000900098002064
:1026E00000904348016851F080510160006810F08B
:1026F000805000900098072000F0A3F901BD10B5AC
:1027000086B004001422002101A800F0C1F920685D
:102710003849884221D1002000903448016851F4A2
:1027200080710160006810F48070009000980020B3
:1027300000903148016851F001010160006810F01B
:1027400001000090009801200190032002900020D9
:10275000039001A9294800F0A5F906B010BD81B089
:102760000068274988420BD100200090204801686A
:1027700051F010010160006810F010000090009806
:1027800001B0704710B586B004001422002101A8E2
:1027900000F07EF920681B49884225D10020009076
:1027A0001348016851F400310160006810F40030F2
:1027B00000900098002000900F48016851F001013E
:1027C0000160006810F00100009000980C2001905A
:1027D000022002900020039003200490072005901F
:1027E00001A9064800F05EF906B010BD4438024069
:1027F00040380240002001403038024000000240D2
:1028000000100040004400402DE9F04104000E009B
:10281000002C01D1012092E0564D286810F00F00E5
:10282000B04207D22E70286810F00F00B04201D0DD
:10283000012084E02078800716D52078400704D551
:102840004D48016851F4E05101602078000704D53B
:102850004948016851F46041016047490A6832F013
:10286000F002A06802430A602078C00735D560688E
:10287000012805D141480068800313D401205EE09F
:102880006068022802D06068032805D13B480068D0
:10289000800107D4012052E038480068800701D445
:1028A00001204CE0344F3968890889006068014391
:1028B0003960FFF7E5FC8046386810F00C0061686D
:1028C000B0EB810F09D0FFF7DBFCB0EB080041F261
:1028D00089318842F0D3032031E0286810F00F00DE
:1028E000864207D22E70286810F00F00B04201D047
:1028F000012024E02078400706D51F490A6832F4F9
:10290000E052E06802430A602078000707D51A48C1
:10291000016831F46041226951EAC2010160FFF7A8
:102920003DFA1749144A1268C2F30312895CC84081
:10293000144908601448006800F0AEF90020BDE8B2
:10294000F08110480068704780B5FFF7FAFF0F4923
:10295000094A1268C2F38222895CC84002BD80B570
:10296000FFF7EFFF0949044A1268C2F34232895C5B
:10297000C84002BD003C0240083802400038024016
:10298000103E00080400002000000020503E000817
:1029900010F00700374B1A684FF6FF010A4052EA61
:1029A0000022354802431A60704732480068C0F37D
:1029B00002207047020052B2002A04D409012F4AB3
:1029C00040B2115407E009012D4A40B210F00F0047
:1029D000104400F8041C704710B410F00700D0F148
:1029E0000703052B01D3042301E0D0F10703041DE5
:1029F000072C01D2002000E0C01E012414FA03F3CA
:102A00005B1E1940814014FA00F0401E104008433C
:102A100010BC704780B5411EB1F1807F01D3012009
:102A20000EE0401E174908600F215FF0FF30FFF7EE
:102A3000C1FF0020144908600720144908600020E5
:102A400002BD80B5FFF7A4FF01BD70B504000D0005
:102A500016000020FFF7A9FF32002900FFF7BCFF96
:102A60000100200040B2FFF7A5FF70BD80B5FFF761
:102A7000D1FF02BD0CED00E00000FA0500E400E02B
:102A800018ED00E014E000E018E000E010E000E0E5
:102A900010B5044610460A460146204600F022F9C9
:102AA000204610BDF8B4002200220022002336E0A8
:102AB000072604E0DFF8AC61B042F9D10626F6B291
:102AC0009F0017F00C07BE4035431E00B60842F8C1
:102AD0002650DFF894512A68A2434E68F60200D5CA
:102AE00022432A60DFF884512A68A2434E68B60266
:102AF00000D522432A60DFF878512A68A2434E6845
:102B0000B60300D522432A60DFF868512A68A24341
:102B10004E68F60301D5144322002A605B1C102B7B
:102B200080F09480012616FA03F20C681440944257
:102B3000F4D10A7912F00302012A04D00A7912F0C2
:102B40000302022A12D1856803275A009740BD4329
:102B5000CF685A0097403D43856042689E40B2432B
:102B60004D68C5F300159D402A4342600A7912F072
:102B70000302032A09D0C56803265A009640B543CC
:102B80008E685A0096403543C5600A7912F00302F8
:102B9000022A15D11A00D20800EB8202126A0F2510
:102BA0009E0016F01C06B540AA430D699E0016F063
:102BB0001C06B5402A431D00ED0800EB85052A627E
:102BC000056803265A009640B5430E7916F00306B1
:102BD0005A009640354305604A6812F4403F9DD044
:102BE00000220092244A156855F480451560126849
:102BF00012F480420092009A204A1D00AD0852F85B
:102C000025500F269F0017F00C07BE40B5431C4E01
:102C1000B04201D1002652E71A4EB04201D101263E
:102C20004DE7194EB04201D1022648E7174EB04297
:102C300001D1032643E7164EB04201D104263EE7F8
:102C4000144EB0427FF436AF052638E7F1BC70472A
:102C5000D2B2002A02D089B2816102E089B20904AD
:102C60008161704700180240083C01400C3C014063
:102C7000043C0140003C0140443802400838014017
:102C8000000002400004024000080240000C024024
:102C9000001002400014024010B504004FF47A7096
:102CA0000D490978B0FBF1F00C490968B1FBF0F06F
:102CB000FFF7DCFE002801D001200CE0102C09D227
:102CC000002221005FF0FF30FFF7BFFE04480460E0
:102CD000002000E0012010BD400000200400002082
:102CE0000000002062F30F2262F31F42401810F030
:102CF000030308D0C91A1FD3DB0748BF00F8012D12
:102D000028BF20F8022D130030B4144615461039A0
:102D100028BF20E93C00FAD8490728BF20E90C0069
:102D200048BF40F8042D890028BF20F8022D48BF75
:102D300000F8012D30BC7047C91818BF00F8012DEC
:102D4000CB0728BF00F8012D70470000F8B500F050
:102D500017FA00F06AF800F07CF900F060F900F072
:102D6000C1F800F034F9DFF8BC43200000F059FA54
:102D7000DFF8B45301224FF480612800FFF768FFA9
:102D8000DFF8A863300000F015FB002021684862DE
:102D90000121300000F098FBDFF89473012130002E
:102DA00000F0E1FB38600221300000F0DCFBDFF8CE
:102DB000841308600321300000F0D5FBDE49086071
:102DC0003868FEF7DBFD41EC100BDC48016840F28F
:102DD000FF5291420BD20168491C016053EC102B49
:102DE000D749D84800F0FAFCD749086009E000212B
:102DF000016053EC102BD549D24800F0EFFCD249CA
:102E000008600123D0480068020092B2CD49D04842
:102E1000FFF777FA00224FF480612800FFF718FFD0
:102E20002068406A0A28A3D2FAE718B593B0342183
:102E3000002206AC2000FFF755FF1421002201AC50
:102E40002000FFF74FFF00200090C248016851F0BA
:102E500080510160006810F08050009000980020C0
:102E60000090BD48016851F440410160006810F4D1
:102E70004040009000980220069001200990102008
:102E80000A9002200C9000200D9008200E90B42093
:102E90000F9002201090022011900220129006A89C
:102EA000FEF7E2FF002801D000F068F900F0B6FC60
:102EB000002801D000F062F90F200190022002905A
:102EC000002003904FF4A05004904FF480500590E0
:102ED000052101A8FFF798FC002801D000F04EF969
:102EE00014B010BD10B58CB01021002208AC200029
:102EF000FFF7F8FE202100226C462000FFF7F2FECB
:102F00008A4C964820605FF4803060600020A060AA
:102F10000120206101202076002084F8200000207C
:102F2000E0628F48A0620020E0600120E0610020A4
:102F300084F8300001206061200000F0ADFC002822
:102F400001D000F01BF9002008900120099000201A
:102F50000A9008A9200000F0D0FC002801D000F061
:102F60000DF9002000900120019003200490002022
:102F70000290002007907B48069000208DF81500F5
:102F800000208DF81400002003906946200000F016
:102F90000CFB002801D000F0F1F8734800900220EB
:102FA00001906946200000F000FB002801D000F0ED
:102FB000E5F811200090032001906946200000F000
:102FC000F4FA002801D000F0D9F80CB010BD1CB5FF
:102FD000082100226C462000FFF784FE514C634814
:102FE000206042F2273060600020A0604FF6FF7042
:102FF000E0600020A061200000F0DCF8002801D093
:1030000000F0BCF8002000900020019069462000EC
:1030100000F0F4FD002801D000F0B0F813BD80B539
:103020004B48534901605FF4612141600021816098
:103030000021C160002101610C21416100218161F9
:103040000021C161FFF722F9002801D000F096F8B5
:1030500001BD38B586B01421002201AC2000FFF775
:1030600041FE002000904348016851F004010160D6
:10307000016811F00401009100990021009101689C
:1030800051F080010160016811F080010091009908
:1030900000210091016851F001010160016811F007
:1030A00001010091009900210091016851F0020195
:1030B0000160006810F00200009000982E4C002281
:1030C00020212000FFF7C4FD174D00224FF480613E
:1030D0002800FFF7BDFD4FF4005001905FF404108D
:1030E00002900020039001A92800FFF7DBFC2020BC
:1030F000019001200290002003900020049001A97B
:103100002000FFF7CFFC4FF4806001900120029077
:10311000022003900320049001A92800FFF7C2FCBD
:1031200007B030BD8C0000200008024044000020A1
:103130003C01002040010020440100203801002013
:10314000403E00081801002048010020483E0008C9
:10315000D4000020403802400070004000200140B0
:103160000100000F01000F001200001000100040CD
:1031700000440040303802400000024072B6FEE7D2
:1031800080B50B48016851F400710160016851F489
:1031900080610160016851F4807101600320FFF7D4
:1031A00050FC0020FFF778FDFFF78CFA002002BDED
:1031B000003C024010B50400002C01D101202FE09A
:1031C00094F83D00002805D1002084F83C00200040
:1031D000FFF7C5FA022084F83D00211D206800F0A9
:1031E00073F8012084F84600012084F83E00012095
:1031F00084F83F00012084F84000012084F8410059
:10320000012084F84200012084F84300012084F862
:103210004400012084F84500012084F83D0000208E
:1032200010BD90F83D10012901D001203DE00221A0
:1032300080F83D100168DFF87420914221D00168C8
:10324000B1F1804F1DD00168DFF86420914218D0A1
:103250000168DFF86020914213D00168DFF8582040
:1032600091420ED00168DFF85420914209D00168E4
:10327000DFF84C20914204D00168DFF848209142E9
:103280000CD10168896811F0070106290CD001688A
:10329000096851F001010068016005E001680968F2
:1032A00051F00101006801600020704700000140FA
:1032B0000004004000080040000C004000040140F1
:1032C000004001400018004010B40468DFF8B83036
:1032D000984212D0B0F1804F0FD0DFF8B02090426A
:1032E0000BD0DFF8AC20904207D0DFF8A820904246
:1032F00003D0DFF8A420904203D134F070044A6870
:103300001443984227D0B0F1804F24D0DFF87C20BE
:10331000904220D0DFF8782090421CD0DFF8742053
:10332000904218D0DFF87020904214D0DFF86C2063
:10333000904210D0DFF8682090420CD0DFF8642073
:10334000904208D0184A904205D0184A904202D0C4
:10335000174A904203D134F44074CA68144334F0DD
:1033600080044A69144304608A68C2620A688262FF
:10337000984202D0084A904201D1096901630121B3
:10338000416110BC70470000000001400004004093
:1033900000080040000C00400004014000400140D3
:1033A000004401400048014000180040001C00405B
:1033B0000020004018B4002100910021002190F865
:1033C0003C10012901D102207CE0012180F83C1051
:1033D00001688968C90716D40168896851F001013C
:1033E00002689160DFF8D8130968DFF8D823B1FBD1
:1033F000F2F203214A43009202E00099491E009133
:1034000000990029F9D101688968C90751D5026C72
:10341000DFF8B4130A4052F480520264016CC9050B
:1034200001D400214164002180F83C107FF00401A8
:1034300002681160DFF89413496811F01F0F19D169
:103440000168896811F4401F01D1012200E00022C7
:1034500001684968890A11F0010191F00101002A0F
:103460002FD000292DD00168896851F480010068AF
:10347000816026E00168896811F4401F01D10122B2
:1034800000E0002201684968890A11F0010191F009
:1034900001010368DFF83843A34212D1002A10D09B
:1034A00000290ED00168896851F4800100688160AC
:1034B00007E0016C51F010010164416C51F0010111
:1034C0004164002012BC704770B505000C0000205C
:1034D000FEF7D6FE060028680068400714D414F1F1
:1034E000010FF8D0002C04D0FEF7CAFE801B8442E6
:1034F000F1D2286800684007EDD404202864002039
:1035000085F83C0003202DE07FF00C00296808605E
:10351000286C50F4005028642868806810F4401F1C
:103520001FD12868806B10F4401F03D02868806882
:10353000400516D428684068400512D42868806881
:1035400010F0405F0DD1287E00280AD1286C30F49D
:1035500080502864286CC00503D4286C50F001000A
:103560002864002070BD81B0002200927FF0040228
:1035700003681A60012911D014D3032906D009D396
:1035800004290FD10068806C00900BE00068406C4B
:10359000009007E00068006C009003E00068C06BDA
:1035A0000090FFE7009801B0704770B4894B8A69BA
:1035B0009A4290F83C20012A01D10220FDE001222C
:1035C00080F83C200A680A2A18D30268D4680725C4
:1035D0000A680A3A032612FB06F29540AC430268D9
:1035E000D4600268D4688D680A680A3A032612FB20
:1035F00006F295402C430268D46013E00268146917
:1036000007250E6803225643B540AC430268146197
:10361000026814698D680E6803225643B5402C4336
:10362000026814610268926B32F440120468A2636B
:103630000268926B0C69641E52EA04520468A26329
:103640000268946B1F254E68F61C0A69B61A05229B
:1036500016FB02F29540AC43026894630268946BD7
:103660000D884E68F61C0A69B61A052216FB02F28E
:1036700095402C43026894638A699A4218D0026884
:10368000926832F4702203689A60026893688A69CB
:103690001343026893600268926832F44012036830
:1036A0009A6002689368CA691343026893600BE0EA
:1036B0000268926832F4702203689A600268926825
:1036C00032F4401203689A604A7D002A06D00268EC
:1036D000526852F4806203685A6005E002685268DA
:1036E00032F4806203685A600A7D002A06D00268BC
:1036F000526852F4805203685A6005E002685268CA
:1037000032F4805203685A604A68012A04D02AD3EE
:10371000032A1BD00DD326E002685269120B120354
:1037200003685A6102685369CA68134302685361A7
:1037300025E002689269120B120303689A6102681D
:103740009369CA6813430268936118E00268D269FA
:10375000120B12030368DA610268D369CA68134363
:103760000268D3610BE00268126A120B120303684D
:103770001A620268136ACA68134302681362134A22
:10378000134B04689C4206D10C68122C03D1546878
:1037900054F48004546004689C420AD10B680E4CB7
:1037A000A34202D00968112903D1516851F40001E4
:1037B0005160002180F83C10002070BC7047000070
:1037C0000400002040420F00FEDFFFFF0023014005
:1037D0000020014001000F00120000100CB430B5B1
:1037E00083B00A4606A9029104460025019400957B
:1037F00002AB01A9084878441E30FCF7E6FC019AA8
:10380000157000284EBF04460198041B204603B0E3
:1038100030BC5DF80CFB00BFB7D8FFFF38B5002007
:10382000002000901948016851F080510160006843
:1038300010F0805000900098012015490860FEF7B4
:103840001FFD0500104C2068C00308D4FEF718FDCA
:10385000401B40F2E9318842F4D3032012E00120FA
:103860000C490860FEF70CFD05002068800308D4B1
:10387000FEF706FD401B40F2E9318842F5D30320F4
:1038800000E0002032BD00000470004040380240DB
:1038900040000E4244000E4238B504000025002CC2
:1038A00001D1012028E0A06ADFF838138842206C9B
:1038B000002807D12000FEF722FF002060640020CE
:1038C00084F83C00206CC00610D4206C30F4885082
:1038D00050F002002064200000F0D6F80020606460
:1038E0000120216C60F30101216400E0012500202A
:1038F00084F83C002800C0B232BD38B40200002079
:10390000009092F83C00012801D10220BAE0012089
:1039100082F83C0008680A2818D31068C368072496
:1039200008680A38032510FB05F08440A34310689B
:10393000C3601068C3688C6808680A38032510FBE8
:1039400005F0844023431068C36013E010680369E6
:1039500007240D6803204543AC40A343106803616E
:10396000106803698C680D6803204543AC4023430D
:10397000106803614868072818D21068436B1F2439
:103980004868401E052510FB05F08440A3431068DD
:1039900043631068436B0C884868401E052510FB84
:1039A00005F0844023431068436333E048680D28E2
:1039B00018D21068036B1F244868C01F052510FB30
:1039C00005F08440A343106803631068036B0C8800
:1039D0004868C01F052510FB05F08440234310688C
:1039E000036317E01068C36A1F2448680D38052573
:1039F00010FB05F08440A3431068C3621068C36ADB
:103A00000C8848680D38052510FB05F084402343D9
:103A10001068C3627648774B14689C420AD10C68E0
:103A2000122C07D1446834F400044460446854F410
:103A30008004446014689C4220D16F4B0C689C4207
:103A400002D00C68112C19D1446834F4800444600D
:103A5000446854F400044460086898420ED16248F7
:103A600000686249B0FBF1F10A204143009102E095
:103A70000098401E009000980028F9D1002082F89C
:103A80003C00002032BC7047594A516831F4403143
:103A90005160536841680B4353600168496831F4D1
:103AA00080710268516001684968026951EA022127
:103AB000026851600168496831F0407102685160E4
:103AC00001684A6881680A4301684A600168896838
:103AD00031F400610268916001688A68C1680A4334
:103AE00001688A60816A3F4A914218D001688968FA
:103AF00031F070610268916001688A68816A0A43E6
:103B000001688A600168896831F0405102689160FB
:103B100001688A68C16A0A4301688A600BE001682B
:103B2000896831F07061026891600168896831F0DC
:103B30004051026891600168896831F002010268B1
:103B4000916001688968027E51EA420102689160D1
:103B500090F82010002914D00168496851F40061E0
:103B6000026851600168496831F46041026851603F
:103B700001684968426A521E51EA42310268516046
:103B800005E00168496831F400610268516001682C
:103B9000C96A31F470010268D1620168C96AC269F8
:103BA000521E51EA02510268D1620168896831F4FB
:103BB0000071026891600168896890F8302051EACC
:103BC0004221026891600168896831F4806102686D
:103BD000916001688968426951EA822100688160C8
:103BE000704700000100000F0400002040420F0059
:103BF00000230140002001401200001010B490F892
:103C00003C20012A01D102203CE0012280F83C2026
:103C1000022280F83D20026854680268936834F0FC
:103C200070040A681443026854600268164CA24289
:103C30001BD00268B2F1804F17D00268134CA24229
:103C400013D00268124CA2420FD00268114CA2425B
:103C50000BD00268104CA24207D002680F4CA2425F
:103C600003D002680E4CA24205D133F080034968AC
:103C70000B4301688B60012180F83D10002180F822
:103C80003C10002010BC70470000014000040040C0
:103C900000080040000C00400004014000400140CA
:103CA00000180040100000000024F4004E1200082C
:103CB0004E1200084E1200084E1200084E12000864
:103CC0004E1200084E120008FFFFFFFFFFFFFFFF2C
:103CD0004E1100084E1200084E120008FFFFFFFFB1
:103CE000FFFF00000100000030B4002512E050F892
:103CF000042BD30744BF4A44521E091F042942F82B
:103D0000045BFAD213468C0744BF15809B1CC9077D
:103D100048BF1D7050F8041B0029E8D130BC704723
:103D200010B5074979441831064C7C44163404E038
:103D30000A68081D114488470146A142F8D110BD08
:103D40002C0000004C0000004EF68851CEF200011D
:103D5000086840F470000860BFF34F8FBFF36F8FA7
:103D60004FF00170E1EE100A704700007DFFFFFF89
:103D700010010000440000200000000013D3FFFFEA
:103D80004400000020FFFFFF0000002000000000B2
:103D900000F00DF8002801D0FFF7C2FFAFF300805C
:103DA0000020AFF30080FEF7D1FF00F002F8012001
:103DB000704700F001B8000007463846FDF7E4FF01
:103DC000FBE700000548014603B4684680F3098814
:103DD000AFF30080FFF7B8FFFFF7DAFFA5EDF5FEC0
:103DE00003480168034A127889180160704700BFD0
:103DF0004C01002040000020FEE7FEE7FEE7FEE762
:103E0000FEE770477047704780B5FFF7E9FF01BDD7
:103E1000000000000000000001020304060708097A
:103E20000148804701480047313E0008C53D000871
:103E30000248016851F470010160704788ED00E0AC
:103E4000252E346620000000252E34660A0000006E
:103E50000000000001020304FFF7FEBFFFF7FEBFF2
:103E6000FFF7FEBFFFF7FEBFFFF7FEBFFFF7FEBF86
:103E7000FFF7FEBFFFF7FEBFFFF7FEBFFFF7FEBF76
:103E8000FFF7FEBFFFF7FEBFFFF7FEBFFFF7FEBF66
:103E9000FFF7FEBFFFF7FEBFFFF7FEBFFFF7FEBF56
:103EA000FFF7FEBFFFF7FEBFFFF7FEBFFFF7FEBF46
:103EB000FFF7FEBFFFF7FEBFFFF7FEBFFFF7FEBF36
:103EC000FFF7FEBFFFF7FEBFFFF7FEBFFFF7FEBF26
:103ED000FFF7FEBFFFF7FEBFFFF7FEBFFFF7FEBF16
:103EE000FFF7FEBFFFF7FEBFFFF7FEBFFFF7FEBF06
:103EF000FFF7FEBFFFF7FEBFFFF7FEBFFFF7FEBFF6
:103F0000FFF7FEBFFFF7FEBFFFF7FEBFFFF7FEBFE5
:103F1000FFF7FEBFFFF7FEBFFFF7FEBFFFF7FEBFD5
:103F2000FFF7FEBFFFF7FEBFFFF7FEBFFFF7FEBFC5
:103F3000FFF7FEBFFFF7FEBFFFF7FEBFFFF7FEBFB5
:103F4000FFF7FEBFFFF7FEBFFFF7FEBFFFF7FEBFA5
:103F5000FFF7FEBFFFF7FEBFFFF7FEBFFFF7FEBF95
:103F6000FFF7FEBFFFF7FEBFFFF7FEBFFFF7FEBF85
:103F7000FFF7FEBFFFF7FEBFFFF7FEBFFFF7FEBF75
:103F8000FFF7FEBFFFF7FEBFFFF7FEBFFFF7FEBF65
:103F9000FFF7FEBFFFF7FEBFFFF7FEBFFFF7FEBF55
:103FA000FFF7FEBFFFF7FEBFFFF7FEBFFFF7FEBF45
:0400000508003DC5ED
:00000001FF
