:020000040800F2
:1000000090C80020CD2800089D2700089F270008E1
:10001000A1270008A3270008A5270008000000006A
:10002000000000000000000000000000A7270008FA
:10003000A927000800000000AB270008AD27000832
:100040000129000805290008092900080D290008D0
:100050001129000815290008192900081D29000880
:100060002129000825290008292900082D29000830
:100070003129000835290008392900083D290008E0
:100080004129000845290008492900084D29000890
:100090005129000855290008592900085D29000840
:1000A0006129000865290008692900086D290008F0
:1000B000B52700087129000875290008792900086A
:1000C0007D29000881290008852900088929000860
:1000D0008D29000891290008952900089929000810
:1000E0009D290008A1290008A5290008A9290008C0
:1000F000AD290008B1290008B5290008B929000870
:10010000BD290008C1290008BF270008C52900082B
:10011000C9290008CD290008D1290008D5290008DF
:10012000D9290008DD290008E1290008E52900088F
:10013000E92900080000000000000000ED29000887
:10014000F1290008F5290008F9290008FD2900080F
:10015000012A0008052A0008092A00080D2A0008BB
:10016000112A0008152A0008192A00081D2A00086B
:10017000212A0008252A0008292A0008000000007A
:10018000000000002D2A0008000000000000000010
:10019000312A00080000000000000000352A000895
:1001A000000000000000000000000000392A0008E4
:1001B0003D2A0008412A0008452A0008492A00086B
:1001C0004D2A000810B50400002C01D101202FE0B9
:1001D00094F83D00002805D1002084F83C00200060
:1001E00000F0D7FB022084F83D00211D206800F0BC
:1001F0000FFA012084F84600012084F83E00012017
:1002000084F83F00012084F84000012084F8410078
:10021000012084F84200012084F84300012084F882
:100220004400012084F84500012084F83D000020AE
:1002300010BD90F83D10012901D0012043E00221BA
:1002400080F83D100168C96851F001010268D16071
:100250000168DFF8E420914221D00168B1F1804FBC
:100260001DD00168DFF8D420914218D00168DFF872
:10027000D020914213D00168DFF8C82091420ED0FF
:100280000168DFF8C420914209D00168DFF8BC2082
:10029000914204D00168DFF8B82091420CD1016886
:1002A000896811F0070106290CD00168096851F02E
:1002B00001010068016005E00168096851F0010171
:1002C000006801600020704710B50400002C01D1C7
:1002D00001202FE094F83D00002805D1002084F88B
:1002E0003C00200000F06FFB022084F83D00211D3F
:1002F000206800F08DF9012084F84600012084F880
:100300003E00012084F83F00012084F840000120D5
:1003100084F84100012084F84200012084F8430061
:10032000012084F84400012084F84500012084F86D
:100330003D00002010BD000000000140000400400E
:1003400000080040000C0040000401400040014053
:100350000018004010B504002068006980071AD515
:100360002068C068800716D57FF002002168086108
:10037000012020772068806910F0030F03D020004F
:1003800000F07EFB05E0200000F07BFB200000F089
:1003900079FB002020772068006940071AD5206883
:1003A000C068400716D57FF004002168086102206C
:1003B00020772068806910F4407F03D0200000F08F
:1003C0005FFB05E0200000F05CFB200000F05AFB22
:1003D000002020772068006900071AD52068C068CF
:1003E000000716D57FF008002168086104202077F7
:1003F0002068C06910F0030F03D0200000F040FB1C
:1004000005E0200000F03DFB200000F03BFB002059
:10041000207720680069C0061AD52068C068C00629
:1004200016D57FF010002168086108202077206829
:10043000C06910F4407F03D0200000F021FB05E0EC
:10044000200000F01EFB200000F01CFB00202077A5
:1004500020680069C0070AD52068C068C00706D5B3
:100460007FF0010021680861200000F021FB206876
:10047000006900060AD52068C068000606D57FF02E
:10048000800021680861200000F06EFD206800698E
:1004900040060AD52068C068400606D57FF04000B7
:1004A00021680861200000F060FD20680069800676
:1004B0000AD52068C068800606D57FF02000216834
:1004C0000861200000F052FD10BD38B50400002581
:1004D00094F83C00012801D1022021E0012084F899
:1004E0003C00002A06D0042A08D0082A0AD00C2A88
:1004F0000CD00FE0206800F0EAF80CE0206800F073
:1005000018F908E0206800F04CF904E0206800F0D9
:100510007EF900E00125002084F83C002800C0B2EC
:1005200032BD38B50400002594F83C00012801D103
:1005300002206CE0012084F83C00022084F83D0099
:100540002068806830F0770030F47F402268906047
:10055000086800284DD010284BD0202849D03028DA
:1005600047D040283BD0502825D060282DD0702877
:1005700007D0B0F5805F03D0B0F5005F0ED03DE04E
:100580003DE0CB684A688968206800F0AAF92068D5
:10059000806850F077002168886030E0CB684A6856
:1005A0008968206800F09DF92068806850F48040D8
:1005B0002168886023E0CA684968206800F064F90F
:1005C0005021206800F085F919E0CA684968206860
:1005D00000F06CF96021206800F07BF90FE0CA6838
:1005E0004968206800F050F94021206800F071F956
:1005F00005E00968206800F06CF900E001250120A1
:1006000084F83D00002084F83C002800C0B232BDD0
:1006100010B40468DFF84432984212D0B0F1804F31
:100620000FD0DFF83C2290420BD0DFF83822904206
:1006300007D0DFF83422904203D0DFF83022904216
:1006400003D134F070044A681443984227D0B0F1C3
:10065000804F24D0DFF80822904220D0DFF8042217
:1006600090421CD0DFF80022904218D0DFF8FC2125
:10067000904214D0DFF8F821904210D0DFF8F42136
:1006800090420CD0DFF8F021904208D07B4A904293
:1006900005D07B4A904202D07A4A904203D134F48A
:1006A0004074CA68144334F080044A6914430460F7
:1006B0008A68C2620A688262984202D06B4A90429B
:1006C00001D1096901630121416110BC704770B417
:1006D000026A520852000262046A4568836933F074
:1006E00070039B089B000A68134334F002048A6875
:1006F00014435A4EB04202D05C4A904205D134F0C5
:100700000804CA68144334F00404B04202D0574AC3
:10071000904207D135F4807535F400754A69154368
:100720008A6915434560836149684163046270BC0E
:10073000704770B4026A32F010020262036A4468C1
:10074000826932F4E04232F440720D6852EA0522C6
:1007500033F020038D6853EA0513404DA84202D0C0
:10076000424EB04206D133F08003CE6853EA0613FE
:1007700033F04003A84202D03C4DA84209D134F4E2
:10078000806434F400644D6954EA85048D6954EA48
:1007900085044460826149688163036270BC70476C
:1007A000000070B4026A32F480720262046A456822
:1007B000C36933F070039B089B000A68134334F449
:1007C00000748A6854EA0224244A904202D0274ED8
:1007D000B04206D134F40064CE6854EA062434F4FE
:1007E0008064904202D0214A904209D135F480556C
:1007F00035F400554A6955EA02158A6955EA021529
:100800004560C3614968C163046270BC704730B41D
:10081000026A32F480520262036A4468C26932F4A6
:10082000E04232F440720D6852EA052233F400537C
:100830008D6853EA0533094DA84202D00B4DA842FA
:1008400004D134F480444D6954EA85144460C26193
:1008500049680164036230BC704700000000014039
:100860000004004000080040000C0040000401406B
:100870000040014000440140004801400018004091
:10088000001C00400020004010B4046A036A5B08AA
:100890005B000362836933F0F00353EA021334F020
:1008A0000A0421438361016210BC704710B4036ADB
:1008B00033F0100303628369046A33F4704353EA2C
:1008C000023334F0A00454EA01148361046210BCC2
:1008D0007047826832F07002114351F00701816065
:1008E000704710B4846834F47F442143114351EAC3
:1008F0000321816010BC704780B5002000905948EA
:10090000016851F480410160006810F4804000905B
:100910000098002000905448016851F08051016017
:10092000006810F0805000900098072000F087FBCE
:1009300001BD10B586B004001422002101A800F00A
:10094000ADFB20684949884221D1002000904548EC
:10095000016851F480710160006810F480700090AB
:100960000098002000904248016851F001010160A8
:10097000006810F001000090009801200190032011
:1009800002900020039001A93A4800F091FB06B0C4
:1009900010BD80B50068B0F1804F13D100200090E9
:1009A0003148016851F001010160006810F0010058
:1009B00000900098002200211C2000F044FB1C2025
:1009C00000F052FB01BD80B500682B49884213D16D
:1009D000002000902448016851F00801016000687F
:1009E00010F008000090009800220021322000F052
:1009F0002AFB322000F038FB01BD10B586B00400A0
:100A00001422002101A800F049FB20681B498842FC
:100A100025D1002000901448016851F40031016094
:100A2000006810F4003000900098002000901048FA
:100A3000016851F001010160006810F001000090B0
:100A400000980C20019002200290002003900320C7
:100A500004900720059001A9064800F029FB06B084
:100A600010BD0000443802404038024000200140E0
:100A70003038024000000240000C004000440040BA
:100A80007047704770470EE00268436802440830C0
:100A90005FEAC37C44BF4B445B1E52F804CB43F86F
:100AA00004CB091FF9D150F8041B0029ECD1704781
:100AB0002DE9F041DFF860442078012842D1DFF8C9
:100AC0005C040168491C0160DFF8545401224FF4B2
:100AD0008061280000F0CBFBDFF848640122202170
:100AE000300000F0C4FBDFF84074380000F0E4FB95
:100AF0000121380000F06AFCDFF830840121380061
:100B000000F0B3FCC8F80000DFF82404D8F80010A7
:100B1000DFF82024036822F813100168491C0160E3
:100B2000006846F2A81188420CD3022020700022EF
:100B30004FF48061280000F09AFB00222021300051
:100B400000F095FBBDE8F08110B54CF25031002269
:100B5000DFF8E043200000F0C3FD0020DFF8D013F1
:100B6000086010BD10B500F0EFFD00F01FF800F0B8
:100B700069F900F04DF900F071F800F007F900F0A4
:100B8000C9F8DFF8B403FFF754FBDFF88C43207893
:100B90000028FAD14FF40051E14800F05FFB002833
:100BA000F3D1FFF7D1FF01202070EEE718B593B025
:100BB0003421002206AC200000F092FD1421002216
:100BC00001AC200000F08CFD00200090DB480168A3
:100BD00051F080510160006810F080500090009842
:100BE00000200090D6480121026861F38F32026034
:100BF000006810F4404000900098012006905FF4D7
:100C00008030079002200C905FF480000D9004204B
:100C10000E9078200F900220109002201190022058
:100C2000129006A800F010FE002801D000F09AF9FA
:100C30000F20019002200290002003904FF4A0505A
:100C400004904FF480500590032101A801F008F8AA
:100C5000002801D000F086F914B010BD10B58CB09A
:100C60001021002208AC200000F03AFD20210022D3
:100C70006C46200000F034FDAB4CB24820600020F0
:100C800060600020A060002020610020207600200D
:100C900084F820000020E062AB48A0620020E06001
:100CA0000120E061002084F8300000206061200015
:100CB00001F09AF8002801D000F054F900200890C3
:100CC0000120099000200A9008A9200001F0BDF839
:100CD000002801D000F046F900200090012001908A
:100CE0000120049000200290002007909748069071
:100CF00000208DF8150001208DF8140000200390CD
:100D00006946200000F0D3FB002801D000F02AF94A
:100D10000CB010BD10B586B01021002202AC20002E
:100D200000F0DEFC082100226C46200000F0D8FC18
:100D3000814C5FF0804020603B2060600020A0601C
:100D40002720E060002020610020A0612000FFF744
:100D500039FA002801D000F005F94FF480500290D4
:100D600002A92000FFF7DDFB002801D000F0FAF80F
:100D700020200090002001906946200001F0E6F953
:100D8000002801D000F0EEF806B010BD18B589B00B
:100D9000082100226C46200000F0A2FC1C21002249
:100DA00002AC200000F09CFC694C6A48206059208D
:100DB00060600020A0604FF47A70E0600020206145
:100DC0008020A0612000FFF77FFA002801D000F00A
:100DD000C9F870200090002001906946200001F0C1
:100DE000B5F9002801D000F0BDF8002002900020E5
:100DF000039000200490002006900C2202A92000FD
:100E0000FFF763FB002801D000F0ACF80AB010BD7A
:100E100080B55148514901605FF4E13141600021E2
:100E200081600021C160002101610C21416100212C
:100E300081610021C16101F0DDF9002801D000F0DD
:100E400091F801BD38B586B01421002201AC200014
:100E500000F046FC002000904148016851F0040178
:100E60000160016811F004010091009900210091D6
:100E7000016851F080010160016811F0800100916A
:100E8000009900210091016851F0010101600168A1
:100E900011F001010091009900210091016851F0C9
:100EA00002010160006810F00200009000981D4CE3
:100EB00000222021200000F0DAF9194D00224FF421
:100EC0008061280000F0D3F94FF4005001905FF4E6
:100ED000041002900020039001A9280000F0E8F817
:100EE0002020019001200290002003900020049017
:100EF00001A9200000F0DCF84FF48060019001208F
:100F00000290022003900320049001A9280000F021
:100F1000CFF807B030BD000088C400207CC400209A
:100F200000080240000002405CC3002078C400209A
:100F300080C400200C000020A4C3002040380240E0
:100F400000700040002001400100000F01000F0070
:100F5000ECC30020000C004034C4002000440040DA
:100F60003038024072B6FEE77047704770470000A5
:100F700010F00700414B1A684FF6FF010A4052EA91
:100F800000223F4802431A6070473C480068C0F3A3
:100F900002207047010049B2002908D4012210F054
:100FA0001F018A40374940B2400941F8202070476C
:100FB000020052B2002A04D40901334A40B211544B
:100FC00007E00901314A40B210F00F00104400F868
:100FD000041C704710B410F00700D0F10703052B74
:100FE00001D3042301E0D0F10703041D072C01D233
:100FF000002000E0C01E012414FA03F35B1E194018
:10100000814014FA00F0401E1040084310BC7047A5
:1010100080B5411EB1F1807F01D301200EE0401E5A
:101020001B4908600F215FF0FF30FFF7C1FF002070
:1010300018490860072018490860002002BD80B5E3
:10104000FFF796FF01BD70B504000D0016000020EB
:10105000FFF79BFF32002900FFF7BCFF01002000D3
:1010600040B2FFF7A5FF70BD80B540B2FFF792FF19
:1010700001BD80B5FFF7CCFF02BD00000CED00E024
:101080000000FA0500E100E000E400E018ED00E0F7
:1010900014E000E018E000E010E000E010B50446C5
:1010A00010460A460146204600F01AFB204610BDB5
:1010B000F8B4002200220022002336E0072604E0D4
:1010C000DFF8C061B042F9D10626F6B29F0017F0F2
:1010D0000C07BE4035431E00B60842F82650DFF824
:1010E000A8512A68A2434E68F60200D522432A601E
:1010F000DFF898512A68A2434E68B60200D5224311
:101100002A60DFF88C512A68A2434E68B60300D5E6
:1011100022432A60DFF87C512A68A2434E68F60316
:1011200001D5144322002A605B1C102B80F09480B0
:10113000012616FA03F20C6814409442F4D10A799D
:1011400012F00302012A04D00A7912F00302022AE3
:1011500012D1856803275A009740BD43CF685A00D3
:1011600097403D43856042689E40B2434D68C5F359
:1011700000159D402A4342600A7912F00302032AB7
:1011800009D0C56803265A009640B5438E685A00B8
:1011900096403543C5600A7912F00302022A15D140
:1011A0001A00D20800EB8202126A0F259E0016F088
:1011B0001C06B540AA430D699E0016F01C06B540FA
:1011C0002A431D00ED0800EB85052A620568032609
:1011D0005A009640B5430E7916F003065A00964021
:1011E000354305604A6812F4403F9DD000220092CA
:1011F000294A156855F480451560126812F480423A
:101200000092009A254A1D00AD0852F825500F267D
:101210009F0017F00C07BE40B543214EB04201D1EC
:10122000002652E71F4EB04201D101264DE71E4E67
:10123000B04201D1022648E71C4EB04201D103263C
:1012400043E71B4EB04201D104263EE7194EB0429F
:101250007FF436AF052638E7F1BC7047006989B2E4
:10126000084201D0012000E00020C0B27047D2B295
:10127000002A02D089B2816102E089B20904816149
:101280007047000000180240083C01400C3C01403F
:10129000043C0140003C0140443802400838014011
:1012A000000002400004024000080240000C02401E
:1012B000001002400014024018B4002100910021E7
:1012C000002190F83C10012901D102207CE001218D
:1012D00080F83C1001688968C90716D401688968DC
:1012E00051F0010102689160DFF8D8130968DFF856
:1012F000D823B1FBF2F203214A43009202E00099A5
:10130000491E009100990029F9D101688968C9072F
:1013100051D5026CDFF8B4130A4052F480520264D3
:10132000016CC90501D400214164002180F83C1002
:101330007FF0040102681160DFF89413496811F02E
:101340001F0F19D10168896811F4401F01D10122D2
:1013500000E0002201684968890A11F0010191F05A
:101360000101002A2FD000292DD00168896851F48D
:1013700080010068816026E00168896811F4401FDF
:1013800001D1012200E0002201684968890A11F0B8
:10139000010191F001010368DFF83843A34212D143
:1013A000002A10D000290ED00168896851F480010C
:1013B0000068816007E0016C51F010010164416C2C
:1013C00051F001014164002012BC704770B5050066
:1013D0000C00002001F080F8060028680068400733
:1013E00014D414F1010FF8D0002C04D001F074F8DB
:1013F000801B8442F1D2286800684007EDD40420A5
:101400002864002085F83C0003202DE07FF00C00CC
:1014100029680860286C50F40050286428688068A7
:1014200010F4401F1FD12868806B10F4401F03D0B8
:1014300028688068400516D428684068400512D4A2
:101440002868806810F0405F0DD1287E00280AD1FE
:10145000286C30F480502864286CC00503D4286CB4
:1014600050F001002864002070BD81B0002200927D
:101470007FF0040203681A60012911D014D30329F4
:1014800006D009D304290FD10068806C00900BE0CE
:101490000068406C009007E00068006C009003E07A
:1014A0000068C06B0090FFE7009801B0704770B40F
:1014B000894B8A699A4290F83C20012A01D1022086
:1014C000FDE0012280F83C200A680A2A18D302684D
:1014D000D46807250A680A3A032612FB06F29540EB
:1014E000AC430268D4600268D4688D680A680A3A1E
:1014F000032612FB06F295402C430268D46013E0E9
:101500000268146907250E6803225643B540AC43B0
:1015100002681461026814698D680E6803225643DC
:10152000B5402C43026814610268926B32F4401299
:101530000468A2630268926B0C69641E52EA04524A
:101540000468A2630268946B1F254E68F61C0A6942
:10155000B61A052216FB02F29540AC43026894636A
:101560000268946B0D884E68F61C0A69B61A05224B
:1015700016FB02F295402C43026894638A699A42F2
:1015800018D00268926832F4702203689A60026888
:1015900093688A691343026893600268926832F420
:1015A000401203689A6002689368CA69134302682C
:1015B00093600BE00268926832F4702203689A60CC
:1015C0000268926832F4401203689A604A7D002AE9
:1015D00006D00268526852F4806203685A6005E0DF
:1015E0000268526832F4806203685A600A7D002AF9
:1015F00006D00268526852F4805203685A6005E0CF
:101600000268526832F4805203685A604A68012ABC
:1016100004D02AD3032A1BD00DD326E002685269D6
:10162000120B120303685A6102685369CA681343B4
:101630000268536125E002689269120B1203036885
:101640009A6102689369CA6813430268936118E05B
:101650000268D269120B12030368DA610268D36967
:10166000CA6813430268D3610BE00268126A120B66
:10167000120303681A620268136ACA681343026895
:101680001362134A134B04689C4206D10C68122C57
:1016900003D1546854F48004546004689C420AD115
:1016A0000B680E4CA34202D00968112903D151687E
:1016B00051F400015160002180F83C10002070BC02
:1016C000704700000400002040420F00FEDFFFFFD3
:1016D000002301400020014001000F001200001013
:1016E00062F30F2262F31F42401810F0030308D088
:1016F000C91A1FD3DB0748BF00F8012D28BF20F807
:10170000022D130030B414461546103928BF20E9C5
:101710003C00FAD8490728BF20E90C0048BF40F830
:10172000042D890028BF20F8022D48BF00F8012DA4
:1017300030BC7047C91818BF00F8012DCB0728BF6F
:1017400000F8012D7047000080B50B48016851F486
:1017500000710160016851F480610160016851F419
:10176000807101600320FFF76AFC002000F0BAFEE0
:10177000FFF7C2F8002002BD003C024010B5002077
:1017800000200020002000202E48006810F00C00EF
:10179000002806D0042807D0082808D00C282BD011
:1017A0004DE0DFF890044CE0DFF88C0449E0DFF80E
:1017B0008044226812F03F02206840020AD5206867
:1017C000C0F38810DFF87014A1FB0001002300F0C3
:1017D000AFFE09E02068C0F38810DFF85814A1FBC1
:1017E0000001002300F0A4FE2168C1F30141491C5F
:1017F0004900B0FBF1F024E0DFF83444226812F035
:101800003F02206840020AD52068C0F38810DFF844
:101810002814A1FB0001002300F08AFE09E02068E3
:10182000C0F38810DFF80C14A1FB0001002300F0C6
:101830007FFE2168C1F30271B0FBF1F001E0DFF837
:10184000F40310BD083802402DE9FC410400002CCF
:1018500001D10120E9E12078C00769D5DFF8E8036C
:10186000016811F00C01042913D0016811F00C017A
:10187000082904D1DFF8B8130968490209D40068BF
:1018800010F00C000C280ED1DFF8A4030068400211
:1018900009D5DFF8AC030068800349D560680028EB
:1018A00046D10120C1E16068B0F5803F06D1DFF884
:1018B0009003016851F48031016018E06068B0F570
:1018C000A02F0AD1DFF87803016851F4802101606C
:1018D000016851F48031016009E0DFF864030168B8
:1018E00031F480310160016831F480210160606869
:1018F00000280ED000F0F0FD0500DFF8440300687A
:10190000800315D400F0E8FD401B6528F5D30320C3
:101910008BE100F0E1FD0500DFF82403006880039F
:1019200006D500F0D9FD401B6528F5D303207CE1E6
:10193000207880072AD5DFF81003016811F00C0F1A
:1019400013D0016811F00C01082904D1DFF8E0126E
:101950000968490209D5006810F00C000C282ED146
:10196000DFF8CC020068400229D4DFF8D402016815
:10197000890704D5E168012901D0012055E10168FA
:1019800031F0F801226951EAC201016020780007B4
:1019900056D56069002842D00120DFF8B0120860F7
:1019A00000F09AFD0500DFF89C020068800747D42C
:1019B00000F092FD401B0328F5D3032035E1E068D9
:1019C00000281AD00120DFF88812086000F084FD9A
:1019D0000500DFF86C020168890706D400F07CFD81
:1019E000401B0328F5D303201FE1016831F0F80103
:1019F000226951EAC2010160C8E70020DFF85012F5
:101A0000086000F069FD05008D4800688007BDD5BD
:101A100000F062FD401B0328F6D3032005E10020FF
:101A20008A49086000F058FD050086480068800774
:101A300006D500F051FD401B0328F6D30320F4E047
:101A4000207840076FD50026824D2868C0000BD44F
:101A500000200090286850F080502860286810F01E
:101A600080500090009801267B4F3868C00511D443
:101A7000386850F48070386000F02EFD8046386879
:101A8000C00507D400F028FDB0EB08000328F6D30A
:101A90000320CAE0A068012805D16848016851F018
:101AA0000101016015E0A068052809D163480168BB
:101AB00051F004010160016851F00101016008E08A
:101AC0005E480168490849000160016831F004017D
:101AD0000160A06800280FD000F0FEFC0700574806
:101AE0000068800718D400F0F7FCC01B41F2893170
:101AF0008842F4D3032098E000F0EEFC07004F4842
:101B00000068800708D500F0E7FCC01B41F289316E
:101B10008842F4D3032088E0F6B2012E03D128686E
:101B200030F080502860A06900287DD046480068C9
:101B300010F00C00082846D0A069022832D1474E88
:101B40000020306000F0C8FC07003D4D286880018F
:101B500006D500F0C1FCC01B0328F6D3032064E0C7
:101B6000E169206A0143606A51EA8011A06A400875
:101B7000401E51EA0041E06A51EA0061206B51EADF
:101B800000712B4801600120306000F0A5FC0400CA
:101B90002868800148D400F09FFC001B0328F7D37D
:101BA000032042E000202D49086000F095FC04006D
:101BB00023480068800137D500F08EFC001B032805
:101BC000F6D3032031E0A069012801D101202CE0E7
:101BD00017480068A169012924D010F48001E26946
:101BE00091421FD110F03F01226A91421AD147F66B
:101BF000C0710140626AB1EB821F13D110F4403111
:101C0000A26A5208521EB1EB024F0BD110F0706164
:101C1000E26AB1EB026F05D110F0E040216BB0EB4E
:101C2000017F01D0012000E00020BDE8F681000026
:101C3000043802400024F40000127A007038024098
:101C4000003802407438024008380240800E474293
:101C500000004742403802400070004060004742A8
:101C60002DE9F04104000E00002C01D1012092E08A
:101C7000564D286810F00F00B04207D22E70286829
:101C800010F00F00B04201D0012084E020788007DE
:101C900016D52078400704D54D48016851F4E0512D
:101CA00001602078000704D54948016851F460417B
:101CB000016047490A6832F0F002A06802430A60F6
:101CC0002078C00735D56068012805D141480068F3
:101CD000800313D401205EE06068022802D06068AF
:101CE000032805D13B480068800107D4012052E059
:101CF00038480068800701D401204CE0344F39682F
:101D00008908890060680143396000F0E5FB80467E
:101D1000386810F00C006168B0EB810F09D000F05A
:101D2000DBFBB0EB080041F289318842F0D303209D
:101D300031E0286810F00F00864207D22E70286824
:101D400010F00F00B04201D0012024E020784007BD
:101D500006D51F490A6832F4E052E06802430A607F
:101D60002078000707D51A48016831F460412269DC
:101D700051EAC2010160FFF701FD1749144A1268D8
:101D8000C2F30312895CC840144908601448006813
:101D900000F0A8FB0020BDE8F08110480068704703
:101DA00080B5FFF7FAFF0F49094A1268C2F3822291
:101DB000895CC84002BD80B5FFF7EFFF0949044ABE
:101DC0001268C2F34232895CC84002BD003C024046
:101DD0000838024000380240BC28000804000020F7
:101DE00000000020F828000838B504000025002C69
:101DF00001D1012028E0A06ADFF838138842206C66
:101E0000002807D12000FEF794FD00206064002028
:101E100084F83C00206CC00610D4206C30F488504C
:101E200050F002002064200000F0D6F8002060642A
:101E30000120216C60F30101216400E001250020F4
:101E400084F83C002800C0B232BD38B40200002043
:101E5000009092F83C00012801D10220BAE0012054
:101E600082F83C0008680A2818D31068C368072461
:101E700008680A38032510FB05F08440A343106866
:101E8000C3601068C3688C6808680A38032510FBB3
:101E900005F0844023431068C36013E010680369B1
:101EA00007240D6803204543AC40A3431068036139
:101EB000106803698C680D6803204543AC402343D8
:101EC000106803614868072818D21068436B1F2404
:101ED0004868401E052510FB05F08440A3431068A8
:101EE00043631068436B0C884868401E052510FB4F
:101EF00005F0844023431068436333E048680D28AD
:101F000018D21068036B1F244868C01F052510FBFA
:101F100005F08440A343106803631068036B0C88CA
:101F20004868C01F052510FB05F084402343106856
:101F3000036317E01068C36A1F2448680D3805253D
:101F400010FB05F08440A3431068C3621068C36AA5
:101F50000C8848680D38052510FB05F084402343A4
:101F60001068C3627648774B14689C420AD10C68AB
:101F7000122C07D1446834F400044460446854F4DB
:101F80008004446014689C4220D16F4B0C689C42D2
:101F900002D00C68112C19D1446834F480044460D8
:101FA000446854F400044460086898420ED16248C2
:101FB00000686249B0FBF1F10A204143009102E060
:101FC0000098401E009000980028F9D1002082F867
:101FD0003C00002032BC7047594A516831F440310E
:101FE0005160536841680B4353600168496831F49C
:101FF00080710268516001684968026951EA0221F2
:10200000026851600168496831F0407102685160AE
:1020100001684A6881680A4301684A600168896802
:1020200031F400610268916001688A68C1680A43FE
:1020300001688A60816A3F4A914218D001688968C4
:1020400031F070610268916001688A68816A0A43B0
:1020500001688A600168896831F0405102689160C6
:1020600001688A68C16A0A4301688A600BE00168F6
:10207000896831F07061026891600168896831F0A7
:102080004051026891600168896831F0020102687C
:10209000916001688968027E51EA4201026891609C
:1020A00090F82010002914D00168496851F40061AB
:1020B000026851600168496831F46041026851600A
:1020C00001684968426A521E51EA42310268516011
:1020D00005E00168496831F40061026851600168F7
:1020E000C96A31F470010268D1620168C96AC269C3
:1020F000521E51EA02510268D1620168896831F4C6
:102100000071026891600168896890F8302051EA96
:102110004221026891600168896831F48061026837
:10212000916001688968426951EA82210068816092
:10213000704700000100000F0400002040420F0023
:1021400000230140002001401200001010B490F85C
:102150003C20012A01D102203CE0012280F83C20F1
:10216000022280F83D20026854680268936834F0C7
:1021700070040A681443026854600268164CA24254
:102180001BD00268B2F1804F17D00268134CA242F4
:1021900013D00268124CA2420FD00268114CA24226
:1021A0000BD00268104CA24207D002680F4CA2422A
:1021B00003D002680E4CA24205D133F08003496877
:1021C0000B4301688B60012180F83D10002180F8ED
:1021D0003C10002010BC704700000140000400408B
:1021E00000080040000C0040000401400040014095
:1021F0000018004010B50400002C01D1012033E08C
:10220000A0690028FFD194F83D00002805D10020E6
:1022100084F83C002000FEF7F0FB242084F83D0009
:102220002068C06830F400502168C860200000F0C9
:102230001CF82068006930F490402168086120682B
:10224000406930F02A00216848612068C06850F475
:1022500000502168C86000202064202084F83D00E0
:10226000202084F83E00002010BD2DE9F047050035
:102270002868016931F44051E86801432868016128
:10228000A9682869014368690143E869014328682E
:10229000C2688E48024011432868C16028684169BD
:1022A00031F44071A8690143286841612868884970
:1022B000884203D028688749884203D1FFF77BFD15
:1022C000040002E0FFF76CFD0400E869B0F5004F80
:1022D0007DD17FF063081926002722000023A6FB8A
:1022E000020106FB031107FB02116A6800235B0071
:1022F00043EAD273520000F01BF96421B0FBF1FAFB
:1023000022000023A6FB020106FB031107FB0211BA
:102310006A6800235B0043EAD273520000F008F9B8
:10232000814622000023A6FB020106FB031107FBE6
:1023300002116A6800235B0043EAD273520000F086
:10234000F7F86421B0FBF1F008FB0090C0003230D8
:102350006421B0FBF1F0400010F4F87010EB0A10AB
:10236000824622000023A6FB020106FB031107FBA5
:1023700002116A6800235B0043EAD273520000F046
:10238000D7F881462000002102000B00A6FB0201C5
:1023900006FB031107FB02116A6800235B0043EA96
:1023A000D273520000F0C4F86421B0FBF1F008FBD6
:1023B00000985FEAC80818F132086420B8FBF0F012
:1023C00010F0070010EB0A00296888607BE07FF0BE
:1023D00063081926002722000023A6FB020106FB42
:1023E000031107FB02116A6800239B0043EA927302
:1023F000920000F09DF86421B0FBF1FA2200002366
:10240000A6FB020106FB031107FB02116A68002309
:102410009B0043EA9273920000F08AF88146220002
:102420000023A6FB020106FB031107FB02116A68E9
:1024300000239B0043EA9273920000F079F8642134
:10244000B0FBF1F008FB0090000132306421B0FBDA
:10245000F1F010F0F00010EB0A1082462200002389
:10246000A6FB020106FB031107FB02116A680023A9
:102470009B0043EA9273920000F05AF881462000D4
:10248000002102000B00A6FB020106FB031107FB63
:1024900002116A6800239B0043EA9273920000F0E5
:1024A00047F86421B0FBF1F008FB00985FEA0818D8
:1024B00018F132086420B8FBF0F010F00F0010EBB8
:1024C0000A0029688860BDE8F0870000F369FFFF13
:1024D000001001400014014001480068704700BF2F
:1024E00084C4002010B504004FF47A700D490978B7
:1024F000B0FBF1F00C490968B1FBF0F0FEF7B9FD53
:10250000002801D001200CE0102C09D2002221006B
:102510005FF0FF30FEF797FD04480460002000E004
:10252000012010BD08000020040000200000002051
:10253000BBBBE1B1B2F5803F80F07E80022A1ED99C
:102540008C46B1FBF2F102FB11C31B0443EA1043BA
:10255000B3FBF2FC02FB1C3380B240EA0343B3FB43
:10256000F2F002FB103240EA0C4000237047022ACE
:1025700005D98446B0FBF2F002FB10C270474AB1A5
:1025800005D100F0010249085FEA300070470022DF
:102590000023704700F0E4B80B0002000021002087
:1025A0007047904271EB030CF6D3B3F5803F2FD206
:1025B000F0B5B3FA83F7B1FA81F4A7F10F0E3D1B22
:1025C0005340CEF1200602FA0EF2F3415340B5F12A
:1025D0000F0746D80F3C2C444140C4F12006A040D0
:1025E000F1414140B1FBF3F603FB1611A2FB064596
:1025F000001BA94102D2761E8018594180EA0102CF
:1026000021FA0EF362FA0EF200215A403046F0BD74
:1026100030B4B1FBF3FC03FB1C11A2FB0C45001B07
:10262000A94103D2ACF1010C8018594130BC0246DB
:102630000B46604600217047B2F1807F65D3F0B54C
:10264000B2FA82F7B1FA81F4C7F10F063D1B22FA04
:1026500006F307F1110EF24120355A40B5F10F078C
:10266000B8D94140C4F12006A040F1414140B1FB3E
:10267000F3FC03FB1C11A2FB0C45001BA94103D278
:10268000BCF1010C801859410F2F12D30F3FC90321
:1026900041EA5041B1FBF3F603FB1611A2FB0645DC
:1026A000D4EBC030A94102D2761E8018594146EAC7
:1026B000CC3C07B34140C7F12006B840F14141404E
:1026C000B1FBF3F603FB1611A2FB0645001BA94163
:1026D00002D2761E8018594180EA010221FA0EF3D7
:1026E000C7F1200462FA0EF20CFA07F05A402CFAF5
:1026F00004F13043F0BD80EA010221FA0EF300211B
:1027000062FA0EF260465A40F0BD8C46B1FBF2F11F
:1027100002FB11C31B0243EA1063B3FBF2FC02FB92
:102720001C331B024CEA002043EA1063B3FBF2FCAB
:1027300002FB1C331B024CEA002043EA1063B3FB8C
:10274000F2FC02FB1C331B024CEA002043EA10633C
:10275000B3FBF2FC02FB1C324CEA00200023704762
:10276000704730B4002512E050F8042BD30744BF63
:102770004A44521E091F042942F8045BFAD2134648
:102780008C0744BF15809B1CC90748BF1D7050F8BB
:10279000041B0029E8D130BC70470000FEE7FEE7CB
:1027A000FEE7FEE7FEE770477047704780B500F030
:1027B0000FF801BD80B50448FDF7CCFD01BD80B523
:1027C0000248FDF7C7FD01BDA4C30020ECC30020F3
:1027D00003480168034A127889180160704700BFF6
:1027E00084C400200800002010B50749794418313E
:1027F000064C7C44163404E00A68081D11448847DE
:102800000146A142F8D110BD2C0000004C00000090
:102810004EF68851CEF20001086840F4700008605E
:10282000BFF34F8FBFF36F8F4FF00170E1EE100ACF
:10283000704700002FFFFFFF80C400000C00002045
:102840000000000043E2FFFF0C000000A0000000B9
:10285000000000200000000000F00DF8002801D06A
:10286000FFF7C2FFAFF300800020AFF30080FEF758
:1028700079F900F002F80120704700F001B800007B
:102880000746384600F002F8FBE7000080B5AFF3DA
:102890000080024A11001820ABBEFBE726000200B0
:1028A0000548014603B4684680F30988AFF3008009
:1028B000FFF7AEFFFFF7D0FFA5EDF5FE000000002B
:1028C00000000000010203040607080901488047D0
:1028D00001480047DD280008A128000802480168D7
:1028E00051F470010160704788ED00E010000000B5
:1028F0000024F400010000000000000001020304B5
:10290000FFF7FEBFFFF7FEBFFFF7FEBFFFF7FEBFFB
:10291000FFF7FEBFFFF7FEBFFFF7FEBFFFF7FEBFEB
:10292000FFF7FEBFFFF7FEBFFFF7FEBFFFF7FEBFDB
:10293000FFF7FEBFFFF7FEBFFFF7FEBFFFF7FEBFCB
:10294000FFF7FEBFFFF7FEBFFFF7FEBFFFF7FEBFBB
:10295000FFF7FEBFFFF7FEBFFFF7FEBFFFF7FEBFAB
:10296000FFF7FEBFFFF7FEBFFFF7FEBFFFF7FEBF9B
:10297000FFF7FEBFFFF7FEBFFFF7FEBFFFF7FEBF8B
:10298000FFF7FEBFFFF7FEBFFFF7FEBFFFF7FEBF7B
:10299000FFF7FEBFFFF7FEBFFFF7FEBFFFF7FEBF6B
:1029A000FFF7FEBFFFF7FEBFFFF7FEBFFFF7FEBF5B
:1029B000FFF7FEBFFFF7FEBFFFF7FEBFFFF7FEBF4B
:1029C000FFF7FEBFFFF7FEBFFFF7FEBFFFF7FEBF3B
:1029D000FFF7FEBFFFF7FEBFFFF7FEBFFFF7FEBF2B
:1029E000FFF7FEBFFFF7FEBFFFF7FEBFFFF7FEBF1B
:1029F000FFF7FEBFFFF7FEBFFFF7FEBFFFF7FEBF0B
:102A0000FFF7FEBFFFF7FEBFFFF7FEBFFFF7FEBFFA
:102A1000FFF7FEBFFFF7FEBFFFF7FEBFFFF7FEBFEA
:102A2000FFF7FEBFFFF7FEBFFFF7FEBFFFF7FEBFDA
:102A3000FFF7FEBFFFF7FEBFFFF7FEBFFFF7FEBFCA
:102A4000FFF7FEBFFFF7FEBFFFF7FEBFFFF7FEBFBA
:04000005080028A126
:00000001FF
