:020000040800F2
:100000003805002089290008112800081328000855
:10001000152800081728000819280008000000000B
:100020000000000000000000000000001B28000885
:100030001D280008000000001F28000821280008D3
:10004000BD290008C1290008C5290008C9290008E0
:10005000CD290008D1290008D5290008D929000890
:10006000DD290008E1290008E5290008E929000840
:10007000ED290008F1290008F5290008F9290008F0
:10008000FD290008012A000829280008052A00087F
:10009000092A00080D2A0008112A0008152A00085C
:1000A000192A00081D2A0008212A0008252A00080C
:1000B00033280008292A00082D2A0008312A0008C0
:1000C000352A0008392A00083D2A0008412A00087C
:1000D000452A0008492A00084D2A0008512A00082C
:1000E000552A0008592A00085D2A0008612A0008DC
:1000F000652A0008692A00086D2A0008712A00088C
:10010000752A0008792A00083D2800087D2A000881
:10011000812A0008852A0008892A00088D2A0008FB
:10012000912A0008952A0008992A00089D2A0008AB
:10013000A12A00080000000000000000A52A000815
:10014000A92A0008AD2A0008B12A0008B52A00082B
:10015000B92A0008BD2A0008C12A0008C52A0008DB
:10016000C92A0008CD2A0008D12A0008D52A00088B
:10017000D92A0008DD2A0008E12A00080000000052
:1001800000000000E52A0008000000000000000058
:10019000E92A00080000000000000000ED2A000825
:1001A000000000000000000000000000F12A00082C
:1001B000F52A0008F92A0008FD2A0008012B00088A
:1001C000052B000810B50400002C01D101202FE000
:1001D00094F83D00002805D1002084F83C00200060
:1001E00000F0DFFB022084F83D00211D206800F0B4
:1001F0000FFA012084F84600012084F83E00012017
:1002000084F83F00012084F84000012084F8410078
:10021000012084F84200012084F84300012084F882
:100220004400012084F84500012084F83D000020AE
:1002300010BD90F83D10012901D0012043E00221BA
:1002400080F83D100168C96851F001010268D16071
:100250000168DFF8E420914221D00168B1F1804FBC
:100260001DD00168DFF8D420914218D00168DFF872
:10027000D020914213D00168DFF8C82091420ED0FF
:100280000168DFF8C420914209D00168DFF8BC2082
:10029000914204D00168DFF8B82091420CD1016886
:1002A000896811F0070106290CD00168096851F02E
:1002B00001010068016005E00168096851F0010171
:1002C000006801600020704710B50400002C01D1C7
:1002D00001202FE094F83D00002805D1002084F88B
:1002E0003C00200000F077FB022084F83D00211D37
:1002F000206800F08DF9012084F84600012084F880
:100300003E00012084F83F00012084F840000120D5
:1003100084F84100012084F84200012084F8430061
:10032000012084F84400012084F84500012084F86D
:100330003D00002010BD000000000140000400400E
:1003400000080040000C0040000401400040014053
:100350000018004010B504002068006980071AD515
:100360002068C068800716D57FF002002168086108
:10037000012020772068806910F0030F03D020004F
:1003800000F086FB05E0200000F083FB200000F079
:1003900081FB002020772068006940071AD520687B
:1003A000C068400716D57FF004002168086102206C
:1003B00020772068806910F4407F03D0200000F08F
:1003C00067FB05E0200000F064FB200000F062FB0A
:1003D000002020772068006900071AD52068C068CF
:1003E000000716D57FF008002168086104202077F7
:1003F0002068C06910F0030F03D0200000F048FB14
:1004000005E0200000F045FB200000F043FB002049
:10041000207720680069C0061AD52068C068C00629
:1004200016D57FF010002168086108202077206829
:10043000C06910F4407F03D0200000F029FB05E0E4
:10044000200000F026FB200000F024FB0020207795
:1004500020680069C0070AD52068C068C00706D5B3
:100460007FF0010021680861200000F044FB206853
:10047000006900060AD52068C068000606D57FF02E
:10048000800021680861200000F042FD20680069BA
:1004900040060AD52068C068400606D57FF04000B7
:1004A00021680861200000F034FD206800698006A2
:1004B0000AD52068C068800606D57FF02000216834
:1004C0000861200000F026FD10BD38B504000025AD
:1004D00094F83C00012801D1022021E0012084F899
:1004E0003C00002A06D0042A08D0082A0AD00C2A88
:1004F0000CD00FE0206800F0EAF80CE0206800F073
:1005000018F908E0206800F04CF904E0206800F0D9
:100510007EF900E00125002084F83C002800C0B2EC
:1005200032BD38B50400002594F83C00012801D103
:1005300002206CE0012084F83C00022084F83D0099
:100540002068806830F0770030F47F402268906047
:10055000086800284DD010284BD0202849D03028DA
:1005600047D040283BD0502825D060282DD0702877
:1005700007D0B0F5805F03D0B0F5005F0ED03DE04E
:100580003DE0CB684A688968206800F0AAF92068D5
:10059000806850F077002168886030E0CB684A6856
:1005A0008968206800F09DF92068806850F48040D8
:1005B0002168886023E0CA684968206800F064F90F
:1005C0005021206800F085F919E0CA684968206860
:1005D00000F06CF96021206800F07BF90FE0CA6838
:1005E0004968206800F050F94021206800F071F956
:1005F00005E00968206800F06CF900E001250120A1
:1006000084F83D00002084F83C002800C0B232BDD0
:1006100010B40468DFF84432984212D0B0F1804F31
:100620000FD0DFF83C2290420BD0DFF83822904206
:1006300007D0DFF83422904203D0DFF83022904216
:1006400003D134F070044A681443984227D0B0F1C3
:10065000804F24D0DFF80822904220D0DFF8042217
:1006600090421CD0DFF80022904218D0DFF8FC2125
:10067000904214D0DFF8F821904210D0DFF8F42136
:1006800090420CD0DFF8F021904208D07B4A904293
:1006900005D07B4A904202D07A4A904203D134F48A
:1006A0004074CA68144334F080044A6914430460F7
:1006B0008A68C2620A688262984202D06B4A90429B
:1006C00001D1096901630121416110BC704770B417
:1006D000026A520852000262046A4568836933F074
:1006E00070039B089B000A68134334F002048A6875
:1006F00014435A4EB04202D05C4A904205D134F0C5
:100700000804CA68144334F00404B04202D0574AC3
:10071000904207D135F4807535F400754A69154368
:100720008A6915434560836149684163046270BC0E
:10073000704770B4026A32F010020262036A4468C1
:10074000826932F4E04232F440720D6852EA0522C6
:1007500033F020038D6853EA0513404DA84202D0C0
:10076000424EB04206D133F08003CE6853EA0613FE
:1007700033F04003A84202D03C4DA84209D134F4E2
:10078000806434F400644D6954EA85048D6954EA48
:1007900085044460826149688163036270BC70476C
:1007A000000070B4026A32F480720262046A456822
:1007B000C36933F070039B089B000A68134334F449
:1007C00000748A6854EA0224244A904202D0274ED8
:1007D000B04206D134F40064CE6854EA062434F4FE
:1007E0008064904202D0214A904209D135F480556C
:1007F00035F400554A6955EA02158A6955EA021529
:100800004560C3614968C163046270BC704730B41D
:10081000026A32F480520262036A4468C26932F4A6
:10082000E04232F440720D6852EA052233F400537C
:100830008D6853EA0533094DA84202D00B4DA842FA
:1008400004D134F480444D6954EA85144460C26193
:1008500049680164036230BC704700000000014039
:100860000004004000080040000C0040000401406B
:100870000040014000440140004801400018004091
:10088000001C00400020004010B4046A036A5B08AA
:100890005B000362836933F0F00353EA021334F020
:1008A0000A0421438361016210BC704710B4036ADB
:1008B00033F0100303628369046A33F4704353EA2C
:1008C000023334F0A00454EA01148361046210BCC2
:1008D0007047826832F07002114351F00701816065
:1008E000704710B4846834F47F442143114351EAC3
:1008F0000321816010BC704780B5002000905D48E6
:10090000016851F480410160006810F4804000905B
:100910000098002000905848016851F08051016013
:10092000006810F0805000900098072000F05BFBFA
:1009300001BD10B586B004001422002101A800F00A
:1009400081FB20684D49884229D100200090494808
:10095000016851F480710160006810F480700090AB
:100960000098002000904648016851F001010160A4
:10097000006810F001000090009801200190032011
:1009800002900020039001A93E4800F065FB002280
:100990000021122000F02BFB122000F039FB06B0E2
:1009A00010BD80B50068B0F1804F13D100200090D9
:1009B0003148016851F001010160006810F0010048
:1009C00000900098002200211C2000F010FB1C2049
:1009D00000F01EFB01BD80B500682B49884213D191
:1009E000002000902448016851F00801016000686F
:1009F00010F008000090009800220021322000F042
:100A0000F6FA322000F004FB01BD10B586B00400F8
:100A10001422002101A800F015FB20681B49884220
:100A200025D1002000901448016851F40031016084
:100A3000006810F4003000900098002000901048EA
:100A4000016851F001010160006810F001000090A0
:100A500000980C20019002200290002003900320B7
:100A600004900720059001A9064800F0F5FA06B0A9
:100A700010BD0000443802404038024000200140D0
:100A80003038024000000240000C004000440040AA
:100A90007047704770470EE00268436802440830B0
:100AA0005FEAC37C44BF4B445B1E52F804CB43F85F
:100AB00004CB091FF9D150F8041B0029ECD1704771
:100AC000DFF808040168491C016000BF00BF00BFD7
:100AD00000BF704780B5DFF8F8030168491C01606A
:100AE00000BF00BF00BF00BF4FF48061DFF8E40328
:100AF00000F092FB01BDDFF8E0030168491C0160D2
:100B000000BF00BF00BF00BF704780B500F0A8FB6A
:100B100000F013F800F071F900F055F900F06AF8F0
:100B200000F00FF900F0D1F8DFF8B00300F0B2FBED
:100B3000DFF8AC03FFF77DFBFEE718B593B0342177
:100B4000002206AC200000F04DFD1421002201AC73
:100B5000200000F047FD00200090E248016851F0BD
:100B600080510160006810F08050009000980020D3
:100B70000090DD48016851F440410160006810F4C4
:100B8000404000900098012006905FF4803007906C
:100B900002200C905FF480000D9004200E90B42091
:100BA0000F9002201090022011900220129006A8AF
:100BB00000F0B2FD002801D000F0A8F900F0B8FF65
:100BC000002801D000F0A2F90F200190022002902D
:100BD000002003904FF4A05004904FF480500590F3
:100BE000052101A800F0E2FF002801D000F08EF9F5
:100BF00014B010BD10B58CB01021002208AC20003C
:100C000000F0F0FC202100226C46200000F0EAFCFD
:100C1000B24CB64820605FF4803060600020A06075
:100C20000120206100202076002084F82000002090
:100C3000E062AF48A0620020E0600120E061002097
:100C400084F8300000206061200001F073F8002873
:100C500001D000F05BF900200890012009900020ED
:100C60000A9008A9200001F044F9002801D000F002
:100C70004DF90020009001200190022004900020F6
:100C800002905FF4801007905FF4403006900020DF
:100C90008DF8150001208DF814000020039069469E
:100CA000200000F087FB002801D000F02FF9112070
:100CB0000090022001906946200000F07BFB002894
:100CC00001D000F023F90CB010BD10B586B0102192
:100CD000002202AC200000F085FC082100226C46B6
:100CE000200000F07FFC7E4C5FF0804020605920A7
:100CF00060600020A0602720E060002020610020CC
:100D0000A0612000FFF75EFA002801D000F0FEF895
:100D10004FF48050029002A92000FFF702FC002847
:100D200001D000F0F3F820200090002001906946E7
:100D3000200001F05FFA002801D000F0E7F806B0CB
:100D400010BD18B589B0082100226C46200000F0C3
:100D500049FC1C21002202AC200000F043FC654C41
:100D600065482060592060600020A0604FF47A70D0
:100D7000E060002020618020A0612000FFF7A4FA3D
:100D8000002801D000F0C2F87020009000200190EF
:100D90006946200001F02EFA002801D000F0B6F8D4
:100DA0000020029000200390002004900020069074
:100DB0000C2202A92000FFF788FB002801D000F0D8
:100DC000A5F80AB010BD80B54C484D4901605FF4EC
:100DD000E1314160002181600021C1600021016199
:100DE0000C214161002181610021C16101F056FAAD
:100DF000002801D000F08AF801BD38B586B0142172
:100E0000002201AC200000F0EDFB002000903D48E6
:100E1000016851F004010160016811F004010091C2
:100E2000009900210091016851F080010160016882
:100E300011F080010091009900210091016851F0AA
:100E400001010160016811F0010100910099002188
:100E50000091016851F002010160006810F0020089
:100E600000900098284C00222021200000F0CAF9B0
:100E7000184D00224FF48061280000F0C3F94FF4B0
:100E8000005001905FF4041002900020039001A92B
:100E9000280000F0E1F820200190012002900020BD
:100EA00003900020049001A9200000F0D5F84FF431
:100EB00080600190012002900220039003200490A2
:100EC00001A9280000F0C8F807B030BD28010020B3
:100ED0002C01002000080240300100200C000020FE
:100EE00054000020403802400070004000200140C3
:100EF0000100000F9C000020000C0040E4000020D6
:100F000000440040303802400000024072B6FEE764
:100F1000704770477047000010F00700414B1A6897
:100F20004FF6FF010A4052EA00223F4802431A608E
:100F300070473C480068C0F302207047010049B286
:100F4000002908D4012210F01F018A40374940B21D
:100F5000400941F820207047020052B2002A04D410
:100F60000901334A40B2115407E00901314A40B245
:100F700010F00F00104400F8041C704710B410F07B
:100F80000700D0F10703052B01D3042301E0D0F1C2
:100F90000703041D072C01D2002000E0C01E01241D
:100FA00014FA03F35B1E1940814014FA00F0401E4E
:100FB0001040084310BC704780B5411EB1F1807FDE
:100FC00001D301200EE0401E1B4908600F215FF095
:100FD000FF30FFF7C1FF00201849086007201849BB
:100FE0000860002002BD80B5FFF796FF01BD70B517
:100FF00004000D0016000020FFF79BFF32002900BF
:10100000FFF7BCFF0100200040B2FFF7A5FF70BD55
:1010100080B540B2FFF792FF01BD80B5FFF7CCFF6E
:1010200002BD00000CED00E00000FA0500E100E068
:1010300000E400E018ED00E014E000E018E000E05B
:1010400010E000E010B5044610460A46014620466E
:1010500000F0C8FA204610BDF8B400220022002299
:10106000002336E0072604E0DFF8C061B042F9D182
:101070000626F6B29F0017F00C07BE4035431E004F
:10108000B60842F82650DFF8A8512A68A2434E68F5
:10109000F60200D522432A60DFF898512A68A2435D
:1010A0004E68B60200D522432A60DFF88C512A68C8
:1010B000A2434E68B60300D522432A60DFF87C5174
:1010C0002A68A2434E68F60301D5144322002A6021
:1010D0005B1C102B80F09480012616FA03F20C683A
:1010E00014409442F4D10A7912F00302012A04D088
:1010F0000A7912F00302022A12D1856803275A00E6
:101100009740BD43CF685A0097403D438560426891
:101110009E40B2434D68C5F300159D402A4342608E
:101120000A7912F00302032A09D0C56803265A007F
:101130009640B5438E685A0096403543C5600A799B
:1011400012F00302022A15D11A00D20800EB820223
:10115000126A0F259E0016F01C06B540AA430D69C1
:101160009E0016F01C06B5402A431D00ED0800EB5A
:1011700085052A62056803265A009640B5430E7914
:1011800016F003065A009640354305604A6812F48B
:10119000403F9DD000220092294A156855F48045B1
:1011A0001560126812F480420092009A254A1D00D0
:1011B000AD0852F825500F269F0017F00C07BE40CF
:1011C000B543214EB04201D1002652E71F4EB04236
:1011D00001D101264DE71E4EB04201D1022648E75B
:1011E0001C4EB04201D1032643E71B4EB04201D151
:1011F00004263EE7194EB0427FF436AF052638E7A5
:10120000F1BC7047D2B2002A02D089B2816102E0FB
:1012100089B209048161704742690B009BB2134097
:1012200089B2914351EA034181617047001802403D
:10123000083C01400C3C0140043C0140003C0140A2
:1012400044380240083801400000024000040240D7
:1012500000080240000C024000100240001402404E
:1012600080B50B48016851F400710160016851F4C8
:1012700080610160016851F4807101600320FFF713
:10128000B2FE002001F07CF9FFF736FB002002BD22
:10129000003C024018B4002100910021002190F888
:1012A0003C10012901D1022082E0012180F83C108C
:1012B00001688968C90716D40168896851F001017D
:1012C00002689160DFF800130968DFF80023B1FBC2
:1012D000F2F203214A43009202E00099491E009174
:1012E00000990029F9D101688968C90757D5026CAE
:1012F000DFF8DC120A4052F480520264016CC90526
:1013000001D400214164002180F83C107FF00401E9
:10131000026811600168496851F0800102685160FB
:10132000DFF8B012496811F01F0F19D10168896800
:1013300011F4401F01D1012200E000220168496838
:10134000890A11F0010191F00101002A2FD0002932
:101350002DD00168896851F480010068816026E021
:101360000168896811F4401F01D1012200E00022C8
:1013700001684968890A11F0010191F001010368CF
:10138000DFF85442A34212D1002A10D000290ED017
:101390000168896851F480010068816007E0016C90
:1013A00051F010010164416C51F0010141640020D1
:1013B00012BC704770B4894B8A699A4290F83C20FD
:1013C000012A01D10220FDE0012280F83C200A68B8
:1013D0000A2A18D30268D46807250A680A3A03263D
:1013E00012FB06F29540AC430268D4600268D468F0
:1013F0008D680A680A3A032612FB06F295402C43D0
:101400000268D46013E00268146907250E6803229D
:101410005643B540AC4302681461026814698D6894
:101420000E6803225643B5402C43026814610268DB
:10143000926B32F440120468A2630268926B0C69EA
:10144000641E52EA04520468A2630268946B1F256A
:101450004E68F61C0A69B61A052216FB02F2954080
:10146000AC43026894630268946B0D884E68F61C66
:101470000A69B61A052216FB02F295402C4302684F
:1014800094638A699A4218D00268926832F4702292
:1014900003689A60026893688A69134302689360DC
:1014A0000268926832F4401203689A600268936896
:1014B000CA691343026893600BE00268926832F4D1
:1014C000702203689A600268926832F440120368DE
:1014D0009A604A7D002A06D00268526852F48062FF
:1014E00003685A6005E00268526832F4806203685B
:1014F0005A600A7D002A06D00268526852F480526F
:1015000003685A6005E00268526832F4805203684A
:101510005A604A68012A04D02AD3032A1BD00DD36B
:1015200026E002685269120B120303685A610268CE
:101530005369CA6813430268536125E002689269DF
:10154000120B120303689A6102689369CA68134315
:101550000268936118E00268D269120B12030368F3
:10156000DA610268D369CA6813430268D3610BE089
:101570000268126A120B120303681A620268136A85
:10158000CA68134302681362124A134B04689C42F0
:1015900006D10C68122C03D1546854F480045460B2
:1015A00004689C420AD10B680D4CA34202D0096822
:1015B000112903D1516851F400015160002180F8D4
:1015C0003C10002070BC70470400002040420F0017
:1015D000FEDFFFFF002301400020014001000F005B
:1015E0001200001062F30F2262F31F42401810F045
:1015F000030308D0C91A1FD3DB0748BF00F8012D29
:1016000028BF20F8022D130030B4144615461039B7
:1016100028BF20E93C00FAD8490728BF20E90C0080
:1016200048BF40F8042D890028BF20F8022D48BF8C
:1016300000F8012D30BC7047C91818BF00F8012D03
:10164000CB0728BF00F8012D7047000010B500201F
:1016500000200020002000202E48006810F00C0020
:10166000002806D0042807D0082808D00C282BD042
:101670004DE0DFF890044CE0DFF88C0449E0DFF83F
:101680008044226812F03F02206840020AD5206898
:10169000C0F38810DFF87014A1FB0001002300F0F4
:1016A00095FF09E02068C0F38810DFF85814A1FB0B
:1016B0000001002300F08AFF2168C1F30141491CA9
:1016C0004900B0FBF1F024E0DFF83444226812F066
:1016D0003F02206840020AD52068C0F38810DFF876
:1016E0002814A1FB0001002300F070FF09E020682E
:1016F000C0F38810DFF80C14A1FB0001002300F0F8
:1017000065FF2168C1F30271B0FBF1F001E0DFF881
:10171000F40310BD083802402DE9FC410400002C00
:1017200001D10120E9E12078C00769D5DFF8E8039D
:10173000016811F00C01042913D0016811F00C01AB
:10174000082904D1DFF8B8130968490209D40068F0
:1017500010F00C000C280ED1DFF8A4030068400242
:1017600009D5DFF8AC030068800349D5606800281C
:1017700046D10120C1E16068B0F5803F06D1DFF8B5
:101780009003016851F48031016018E06068B0F5A1
:10179000A02F0AD1DFF87803016851F4802101609D
:1017A000016851F48031016009E0DFF864030168E9
:1017B00031F480310160016831F48021016060689A
:1017C00000280ED001F01AF80500DFF84403006885
:1017D000800315D401F012F8401B6528F5D30320CF
:1017E0008BE101F00BF80500DFF8240300688003AB
:1017F00006D501F003F8401B6528F5D303207CE1F2
:10180000207880072AD5DFF81003016811F00C0F4B
:1018100013D0016811F00C01082904D1DFF8E0129F
:101820000968490209D5006810F00C000C282ED177
:10183000DFF8CC020068400229D4DFF8D402016846
:10184000890704D5E168012901D0012055E101682B
:1018500031F0F801226951EAC201016020780007E5
:1018600056D56069002842D00120DFF8B012086028
:1018700000F0C4FF0500DFF89C020068800747D431
:1018800000F0BCFF401B0328F5D3032035E1E068DE
:1018900000281AD00120DFF88812086000F0AEFF9F
:1018A0000500DFF86C020168890706D400F0A6FF86
:1018B000401B0328F5D303201FE1016831F0F80134
:1018C000226951EAC2010160C8E70020DFF8501226
:1018D000086000F093FF05008D4800688007BDD5C3
:1018E00000F08CFF401B0328F6D3032005E1002005
:1018F0008A49086000F082FF05008648006880077A
:1019000006D500F07BFF401B0328F6D30320F4E04C
:10191000207840076FD50026824D2868C0000BD480
:1019200000200090286850F080502860286810F04F
:1019300080500090009801267B4F3868C00511D474
:10194000386850F48070386000F058FF804638687E
:10195000C00507D400F052FFB0EB08000328F6D30F
:101960000320CAE0A068012805D16848016851F049
:101970000101016015E0A068052809D163480168EC
:1019800051F004010160016851F00101016008E0BB
:101990005E480168490849000160016831F00401AE
:1019A0000160A06800280FD000F028FF070057480A
:1019B0000068800718D400F021FFC01B41F2893174
:1019C0008842F4D3032098E000F018FF07004F4846
:1019D0000068800708D500F011FFC01B41F2893173
:1019E0008842F4D3032088E0F6B2012E03D12868A0
:1019F00030F080502860A06900287DD046480068FB
:101A000010F00C00082846D0A069022832D1474EB9
:101A10000020306000F0F2FE07003D4D2868800194
:101A200006D500F0EBFEC01B0328F6D3032064E0CC
:101A3000E169206A0143606A51EA8011A06A4008A6
:101A4000401E51EA0041E06A51EA0061206B51EA10
:101A500000712B4801600120306000F0CFFE0400CF
:101A60002868800148D400F0C9FE001B0328F7D382
:101A7000032042E000202D49086000F0BFFE040072
:101A800023480068800137D500F0B8FE001B03280A
:101A9000F6D3032031E0A069012801D101202CE018
:101AA00017480068A169012924D010F48001E26977
:101AB00091421FD110F03F01226A91421AD147F69C
:101AC000C0710140626AB1EB821F13D110F4403142
:101AD000A26A5208521EB1EB024F0BD110F0706196
:101AE000E26AB1EB026F05D110F0E040216BB0EB80
:101AF000017F01D0012000E00020BDE8F681000058
:101B0000043802400024F40000127A0070380240C9
:101B1000003802407438024008380240800E4742C4
:101B200000004742403802400070004060004742D9
:101B300038B50020002000901948016851F080510C
:101B40000160006810F08050009000980120154955
:101B5000086000F053FE0500104C2068C00308D454
:101B600000F04CFE401B40F2E9318842F4D30320E0
:101B700012E001200C49086000F040FE05002068DA
:101B8000800308D400F03AFE401B40F2E93188425D
:101B9000F5D3032000E0002032BD000004700040B7
:101BA0004038024040000E4244000E422DE9F04110
:101BB00004000E00002C01D1012092E0564D28684F
:101BC00010F00F00B04207D22E70286810F00F00FE
:101BD000B04201D0012084E02078800716D520781B
:101BE000400704D54D48016851F4E0510160207868
:101BF000000704D54948016851F460410160474934
:101C00000A6832F0F002A06802430A602078C00738
:101C100035D56068012805D141480068800313D498
:101C200001205EE06068022802D06068032805D1C8
:101C30003B480068800107D4012052E03848006822
:101C4000800701D401204CE0344F396889088900AD
:101C500060680143396000F0D1FD8046386810F0BB
:101C60000C006168B0EB810F09D000F0C7FDB0EB4C
:101C7000080041F289318842F0D3032031E028681E
:101C800010F00F00864207D22E70286810F00F0067
:101C9000B04201D0012024E02078400706D51F493A
:101CA0000A6832F4E052E06802430A6020780007D4
:101CB00007D51A48016831F46041226951EAC2012E
:101CC0000160FFF7C3FC1749144A1268C2F30312FC
:101CD000895CC840144908601448006800F050FC52
:101CE0000020BDE8F08110480068704780B5FFF71C
:101CF000FAFF0F49094A1268C2F38222895CC84080
:101D000002BD80B5FFF7EFFF0949044A1268C2F32C
:101D10004232895CC84002BD003C024008380240A3
:101D2000003802407829000804000020000000204C
:101D3000B429000838B504000025002C01D1012089
:101D400028E0A06ADFF894148842206C002807D1AC
:101D50002000FEF7EEFD00206064002084F83C00C7
:101D6000206CC00610D4206C30F4885050F0020073
:101D70002064200000F084F9002060640120216CC0
:101D800060F30101216400E00125002084F83C009B
:101D90002800C0B232BD70B50600002000203068B7
:101DA00004683068456814F0020115F0200000292D
:101DB00031D000282FD0306CC00603D4306C50F4E2
:101DC000007030643068806810F0405F1CD1307E55
:101DD000002819D13068C06A10F4700F03D0306841
:101DE0008068400510D43068406830F020003168C9
:101DF0004860306C30F480703064306CC00403D4C0
:101E0000306C50F0010030643000FEF759FE7FF076
:101E100012003168086014F0040115F080000029F8
:101E20003AD0002838D0306CC00603D4306C50F45F
:101E3000005030643068806810F4401F25D130684D
:101E4000806B10F4401F03D03068806840051CD4BC
:101E500030684068400518D43068806810F0405FF2
:101E600013D1307E002810D13068406830F08000F7
:101E700031684860306C30F480503064306CC0059C
:101E800003D4306C50F0010030643000FEF722FEC5
:101E90007FF00C003168086014F0010115F040007B
:101EA000002910D000280ED030680068C0070AD57D
:101EB000306C50F480303064300000F0A5FC7FF0CE
:101EC00001003168086014F0200415F08065002CD2
:101ED0000ED0002D0CD0706C50F0020070647FF0BA
:101EE000200430680460300000F08FFC306804602B
:101EF00070BD38B402000020009092F83C00012828
:101F000001D10220BAE0012082F83C0008680A28CA
:101F100018D31068C368072408680A38032510FB23
:101F200005F08440A3431068C3601068C3688C68E0
:101F300008680A38032510FB05F084402343106825
:101F4000C36013E01068036907240D68032045434C
:101F5000AC40A34310680361106803698C680D6886
:101F600003204543AC4023431068036148680728B9
:101F700018D21068436B1F244868401E052510FBCB
:101F800005F08440A343106843631068436B0C88DA
:101F90004868401E052510FB05F084402343106867
:101FA000436333E048680D2818D21068036B1F2480
:101FB0004868C01F052510FB05F08440A343106846
:101FC00003631068036B0C884868C01F052510FB6D
:101FD00005F0844023431068036317E01068C36A68
:101FE0001F2448680D38052510FB05F08440A343E5
:101FF0001068C3621068C36A0C8848680D380525EC
:1020000010FB05F0844023431068C3627648774B89
:1020100014689C420AD10C68122C07D1446834F42D
:1020200000044460446854F48004446014689C4292
:1020300020D16F4B0C689C4202D00C68112C19D136
:10204000446834F480044460446854F400044460F8
:10205000086898420ED1624800686249B0FBF1F10D
:102060000A204143009102E00098401E0090009831
:102070000028F9D1002082F83C00002032BC7047D3
:10208000594A516831F440315160536841680B43FB
:1020900053600168496831F48071026851600168D9
:1020A0004968026951EA0221026851600168496881
:1020B00031F040710268516001684A6881680A43E2
:1020C00001684A600168896831F4006102689160C2
:1020D00001688A68C1680A4301688A60816A3F4A68
:1020E000914218D00168896831F07061026891608E
:1020F00001688A68816A0A4301688A6001688968A0
:1021000031F040510268916001688A68C16A0A43EF
:1021100001688A600BE00168896831F070610268CB
:1021200091600168896831F04051026891600168EE
:10213000896831F002010268916001688968027E55
:1021400051EA42010268916090F82010002914D0F1
:102150000168496851F4006102685160016849688A
:1021600031F460410268516001684968426A521E58
:1021700051EA42310268516005E00168496831F472
:102180000061026851600168C96A31F47001026837
:10219000D1620168C96AC269521E51EA02510268DD
:1021A000D1620168896831F4007102689160016848
:1021B000896890F8302051EA4221026891600168F4
:1021C000896831F4806102689160016889684269B8
:1021D00051EA822100688160704700000100000F11
:1021E0000400002040420F00002301400020014075
:1021F0001200001010B490F83C20012A01D10220F6
:102200003CE0012280F83C20022280F83D20026858
:1022100054680268936834F070040A6814430268D2
:1022200054600268164CA2421BD00268B2F1804F83
:1022300017D00268134CA24213D00268124CA2427B
:102240000FD00268114CA2420BD00268104CA2427F
:1022500007D002680F4CA24203D002680E4CA24283
:1022600005D133F0800349680B4301688B6001217D
:1022700080F83D10002180F83C10002010BC704711
:10228000000001400004004000080040000C004035
:1022900000040140004001400018004010B5040057
:1022A000002C01D1012033E0A0690028FFD194F86F
:1022B0003D00002805D1002084F83C002000FEF7F6
:1022C000A4FB242084F83D002068C06830F400504E
:1022D0002168C860200000F01CF82068006930F414
:1022E0009040216808612068406930F02A00216828
:1022F00048612068C06850F400502168C860002020
:102300002064202084F83D00202084F83E00002036
:1023100010BD2DE9F04705002868016931F44051EE
:10232000E868014328680161A96828690143686970
:102330000143E86901432868C2688E48024011439E
:102340002868C1602868416931F44071A869014377
:102350002868416128688849884203D028688749ED
:10236000884203D1FFF7CDFC040002E0FFF7BEFC7A
:102370000400E869B0F5004F7DD17FF063081926AD
:10238000002722000023A6FB020106FB031107FB26
:1023900002116A6800235B0043EAD273520000F026
:1023A00015F96421B0FBF1FA22000023A6FB02011B
:1023B00006FB031107FB02116A6800235B0043EA76
:1023C000D273520000F002F9814622000023A6FBDE
:1023D000020106FB031107FB02116A6800235B0080
:1023E00043EAD273520000F0F1F86421B0FBF1F03F
:1023F00008FB0090C00032306421B0FBF1F04000D7
:1024000010F4F87010EB0A10824622000023A6FB9D
:10241000020106FB031107FB02116A6800235B003F
:1024200043EAD273520000F0D1F881462000002127
:1024300002000B00A6FB020106FB031107FB0211C1
:102440006A6800235B0043EAD273520000F0BEF8D2
:102450006421B0FBF1F008FB00985FEAC80818F1AE
:1024600032086420B8FBF0F010F0070010EB0A000F
:10247000296888607BE07FF0630819260027220026
:102480000023A6FB020106FB031107FB02116A6889
:1024900000239B0043EA9273920000F097F86421B6
:1024A000B0FBF1FA22000023A6FB020106FB031198
:1024B00007FB02116A6800239B0043EA92739200B3
:1024C00000F084F8814622000023A6FB020106FBEF
:1024D000031107FB02116A6800239B0043EA927311
:1024E000920000F073F86421B0FBF1F008FB00905B
:1024F000000132306421B0FBF1F010F0F00010EB7D
:102500000A10824622000023A6FB020106FB0311EB
:1025100007FB02116A6800239B0043EA9273920052
:1025200000F054F881462000002102000B00A6FBB9
:10253000020106FB031107FB02116A6800239B00DE
:1025400043EA9273920000F041F86421B0FBF1F08D
:1025500008FB00985FEA081818F132086420B8FBFD
:10256000F0F010F00F0010EB0A0029688860BDE859
:10257000F0870000F369FFFF0010014000140140E4
:1025800010B504004FF47A700D490978B0FBF1F0F2
:102590000C490968B1FBF0F0FEF73FFD002801D0BF
:1025A00001200CE0102C09D2002221005FF0FF3046
:1025B000FEF71DFD04480460002000E0012010BD6E
:1025C000080000200400002000000020BBBBE1B197
:1025D000B2F5803F80F07E80022A1ED98C46B1FB86
:1025E000F2F102FB11C31B0443EA1043B3FBF2FCFC
:1025F00002FB1C3380B240EA0343B3FBF2F002FB60
:10260000103240EA0C4000237047022A05D9844664
:10261000B0FBF2F002FB10C270474AB105D100F0E6
:10262000010249085FEA300070470022002370472A
:1026300000F0ECB80B00020000210020704790422F
:1026400071EB030CF6D3B3F5803F2FD2F0B5B3FA9C
:1026500083F7B1FA81F4A7F10F0E3D1B5340CEF181
:10266000200602FA0EF2F3415340B5F10F0746D8A7
:102670000F3C2C444140C4F12006A040F1414140B0
:10268000B1FBF3F603FB1611A2FB0645001BA941A3
:1026900002D2761E8018594180EA010221FA0EF317
:1026A00062FA0EF200215A403046F0BD30B4B1FB60
:1026B000F3FC03FB1C11A2FB0C45001BA94103D238
:1026C000ACF1010C8018594130BC02460B46604603
:1026D00000217047B2F1807F65D3F0B5B2FA82F77E
:1026E000B1FA81F4C7F10F063D1B22FA06F307F198
:1026F000110EF24120355A40B5F10F07B8D94140CB
:10270000C4F12006A040F1414140B1FBF3FC03FBC2
:102710001C11A2FB0C45001BA94103D2BCF1010C0A
:10272000801859410F2F12D30F3FC90341EA50417E
:10273000B1FBF3F603FB1611A2FB0645D4EBC03048
:10274000A94102D2761E8018594146EACC3C07B313
:102750004140C7F12006B840F1414140B1FBF3F6DA
:1027600003FB1611A2FB0645001BA94102D2761EEF
:102770008018594180EA010221FA0EF3C7F12004C2
:1027800062FA0EF20CFA07F05A402CFA04F13043C8
:10279000F0BD80EA010221FA0EF3002162FA0EF286
:1027A00060465A40F0BD8C46B1FBF2F102FB11C30A
:1027B0001B0243EA1063B3FBF2FC02FB1C331B0257
:1027C0004CEA002043EA1063B3FBF2FC02FB1C332B
:1027D0001B024CEA002043EA1063B3FBF2FC02FB4D
:1027E0001C331B024CEA002043EA1063B3FBF2FCEB
:1027F00002FB1C324CEA00200023704701480068AD
:10280000704700BF340100207047704770470000D8
:10281000FEE7FEE7FEE7FEE7FEE77047704770471A
:1028200080B500F017F801BD80B50748FFF7B3FA8F
:1028300001BD80B50548FDF78DFD01BD80B504489B
:10284000FDF788FD01BD00000C00002054000020B1
:102850009C00002003480168034A1278891801602F
:10286000704700BF340100200800002030B400256C
:1028700012E050F8042BD30744BF4A44521E091FEC
:10288000042942F8045BFAD213468C0744BF158032
:102890009B1CC90748BF1D7050F8041B0029E8D1D4
:1028A00030BC704710B5074979441831064C7C4458
:1028B000163404E00A68081D114488470146A14205
:1028C000F8D110BD2C0000004C0000004EF68851DD
:1028D000CEF20001086840F470000860BFF34F8F2B
:1028E000BFF36F8F4FF00170E1EE100A70470000E8
:1028F0007DFFFFFF2C0100000C0000200000000005
:1029000097E1FFFF0C000000A00000000000002085
:102910000000000000F00DF8002801D0FFF7C2FF12
:10292000AFF300800020AFF30080FEF7EEF800F078
:1029300002F80120704700F001B800000746384651
:1029400000F002F8FBE7000080B5AFF30080024A18
:1029500011001820ABBEFBE7260002000548014627
:1029600003B4684680F30988AFF30080FFF7AEFF39
:10297000FFF7D0FFA5EDF5FE00000000000000000D
:10298000010203040607080901488047014800477F
:10299000992900085D2900080248016851F4700176
:1029A0000160704788ED00E0100000000024F40092
:1029B000010000000000000001020304FFF7FEBF59
:1029C000FFF7FEBFFFF7FEBFFFF7FEBFFFF7FEBF3B
:1029D000FFF7FEBFFFF7FEBFFFF7FEBFFFF7FEBF2B
:1029E000FFF7FEBFFFF7FEBFFFF7FEBFFFF7FEBF1B
:1029F000FFF7FEBFFFF7FEBFFFF7FEBFFFF7FEBF0B
:102A0000FFF7FEBFFFF7FEBFFFF7FEBFFFF7FEBFFA
:102A1000FFF7FEBFFFF7FEBFFFF7FEBFFFF7FEBFEA
:102A2000FFF7FEBFFFF7FEBFFFF7FEBFFFF7FEBFDA
:102A3000FFF7FEBFFFF7FEBFFFF7FEBFFFF7FEBFCA
:102A4000FFF7FEBFFFF7FEBFFFF7FEBFFFF7FEBFBA
:102A5000FFF7FEBFFFF7FEBFFFF7FEBFFFF7FEBFAA
:102A6000FFF7FEBFFFF7FEBFFFF7FEBFFFF7FEBF9A
:102A7000FFF7FEBFFFF7FEBFFFF7FEBFFFF7FEBF8A
:102A8000FFF7FEBFFFF7FEBFFFF7FEBFFFF7FEBF7A
:102A9000FFF7FEBFFFF7FEBFFFF7FEBFFFF7FEBF6A
:102AA000FFF7FEBFFFF7FEBFFFF7FEBFFFF7FEBF5A
:102AB000FFF7FEBFFFF7FEBFFFF7FEBFFFF7FEBF4A
:102AC000FFF7FEBFFFF7FEBFFFF7FEBFFFF7FEBF3A
:102AD000FFF7FEBFFFF7FEBFFFF7FEBFFFF7FEBF2A
:102AE000FFF7FEBFFFF7FEBFFFF7FEBFFFF7FEBF1A
:102AF000FFF7FEBFFFF7FEBFFFF7FEBFFFF7FEBF0A
:082B0000FFF7FEBFFFF7FEBF67
:040000050800295D69
:00000001FF
